{
  "address": "0x5Ad7106acDe1078185BaA5c38d2218656B6dc3BA",
  "abi": [
    {
      "inputs": [
        {
          "internalType": "address",
          "name": "_nft",
          "type": "address"
        },
        {
          "internalType": "uint256",
          "name": "_tokenId",
          "type": "uint256"
        }
      ],
      "name": "bid",
      "outputs": [],
      "stateMutability": "payable",
      "type": "function"
    },
    {
      "inputs": [
        {
          "internalType": "address",
          "name": "",
          "type": "address"
        },
        {
          "internalType": "uint256",
          "name": "",
          "type": "uint256"
        },
        {
          "internalType": "address",
          "name": "",
          "type": "address"
        }
      ],
      "name": "bids",
      "outputs": [
        {
          "internalType": "uint256",
          "name": "",
          "type": "uint256"
        }
      ],
      "stateMutability": "view",
      "type": "function"
    },
    {
      "inputs": [
        {
          "internalType": "address",
          "name": "_nft",
          "type": "address"
        },
        {
          "internalType": "uint256",
          "name": "_tokenId",
          "type": "uint256"
        }
      ],
      "name": "cancelAuction",
      "outputs": [],
      "stateMutability": "nonpayable",
      "type": "function"
    },
    {
      "inputs": [
        {
          "internalType": "address",
          "name": "_nft",
          "type": "address"
        },
        {
          "internalType": "uint256",
          "name": "_tokenId",
          "type": "uint256"
        },
        {
          "internalType": "uint128",
          "name": "_price",
          "type": "uint128"
        },
        {
          "internalType": "uint256",
          "name": "_duration",
          "type": "uint256"
        },
        {
          "internalType": "uint256",
          "name": "_minIncrement",
          "type": "uint256"
        }
      ],
      "name": "createTokenAuction",
      "outputs": [],
      "stateMutability": "nonpayable",
      "type": "function"
    },
    {
      "inputs": [
        {
          "internalType": "address",
          "name": "_nft",
          "type": "address"
        },
        {
          "internalType": "uint256",
          "name": "_tokenId",
          "type": "uint256"
        }
      ],
      "name": "executeSale",
      "outputs": [],
      "stateMutability": "nonpayable",
      "type": "function"
    },
    {
      "inputs": [
        {
          "internalType": "address",
          "name": "_nft",
          "type": "address"
        },
        {
          "internalType": "uint256",
          "name": "_tokenId",
          "type": "uint256"
        }
      ],
      "name": "getTokenAuctionDetails",
      "outputs": [
        {
          "components": [
            {
              "internalType": "address",
              "name": "seller",
              "type": "address"
            },
            {
              "internalType": "uint128",
              "name": "price",
              "type": "uint128"
            },
            {
              "internalType": "uint256",
              "name": "duration",
              "type": "uint256"
            },
            {
              "internalType": "uint256",
              "name": "maxBid",
              "type": "uint256"
            },
            {
              "internalType": "address",
              "name": "maxBidUser",
              "type": "address"
            },
            {
              "internalType": "bool",
              "name": "isActive",
              "type": "bool"
            },
            {
              "internalType": "uint256[]",
              "name": "bidAmounts",
              "type": "uint256[]"
            },
            {
              "internalType": "address[]",
              "name": "users",
              "type": "address[]"
            },
            {
              "internalType": "uint256",
              "name": "minIncrement",
              "type": "uint256"
            }
          ],
          "internalType": "struct AuctionV2.tokenDetails",
          "name": "",
          "type": "tuple"
        }
      ],
      "stateMutability": "view",
      "type": "function"
    },
    {
      "inputs": [
        {
          "internalType": "address",
          "name": "",
          "type": "address"
        },
        {
          "internalType": "address",
          "name": "",
          "type": "address"
        },
        {
          "internalType": "uint256",
          "name": "",
          "type": "uint256"
        },
        {
          "internalType": "bytes",
          "name": "",
          "type": "bytes"
        }
      ],
      "name": "onERC721Received",
      "outputs": [
        {
          "internalType": "bytes4",
          "name": "",
          "type": "bytes4"
        }
      ],
      "stateMutability": "nonpayable",
      "type": "function"
    },
    {
      "inputs": [
        {
          "internalType": "address",
          "name": "",
          "type": "address"
        },
        {
          "internalType": "uint256",
          "name": "",
          "type": "uint256"
        }
      ],
      "name": "tokenToAuction",
      "outputs": [
        {
          "internalType": "address",
          "name": "seller",
          "type": "address"
        },
        {
          "internalType": "uint128",
          "name": "price",
          "type": "uint128"
        },
        {
          "internalType": "uint256",
          "name": "duration",
          "type": "uint256"
        },
        {
          "internalType": "uint256",
          "name": "maxBid",
          "type": "uint256"
        },
        {
          "internalType": "address",
          "name": "maxBidUser",
          "type": "address"
        },
        {
          "internalType": "bool",
          "name": "isActive",
          "type": "bool"
        },
        {
          "internalType": "uint256",
          "name": "minIncrement",
          "type": "uint256"
        }
      ],
      "stateMutability": "view",
      "type": "function"
    },
    {
      "stateMutability": "payable",
      "type": "receive"
    }
  ],
  "transactionHash": "0x01431d8c65b1e23ac7a644372b9fa413bb0716f4358026fc4a4ebd46011a6d93",
  "args": [],
  "solcInputHash": "9cbd830a088c5083b9245c08c37d2c0c",
  "bytecode": "0x608060405234801561001057600080fd5b506128a7806100206000396000f3fe60806040526004361061007f5760003560e01c80637792ba5f1161004e5780637792ba5f1461014a5780637bed72321461018d578063859b97fe146101b6578063dd768922146101df57610086565b806310fb197f1461008b578063150b7a02146100b457806359d667a5146100f1578063722565c51461010d57610086565b3661008657005b600080fd5b34801561009757600080fd5b506100b260048036038101906100ad9190611d97565b61021c565b005b3480156100c057600080fd5b506100db60048036038101906100d69190611c8c565b610753565b6040516100e89190612454565b60405180910390f35b61010b60048036038101906101069190611d0c565b610781565b005b34801561011957600080fd5b50610134600480360381019061012f9190611d0c565b610d00565b60405161014191906125cf565b60405180910390f35b34801561015657600080fd5b50610171600480360381019061016c9190611d0c565b610f86565b60405161018497969594939291906123e5565b60405180910390f35b34801561019957600080fd5b506101b460048036038101906101af9190611d0c565b61103e565b005b3480156101c257600080fd5b506101dd60048036038101906101d89190611d0c565b61166b565b005b3480156101eb57600080fd5b5061020660048036038101906102019190611d48565b611a51565b60405161021391906125f1565b60405180910390f35b600073ffffffffffffffffffffffffffffffffffffffff163373ffffffffffffffffffffffffffffffffffffffff16141561028c576040517f08c379a0000000000000000000000000000000000000000000000000000000008152600401610283906124ef565b60405180910390fd5b600073ffffffffffffffffffffffffffffffffffffffff168573ffffffffffffffffffffffffffffffffffffffff1614156102fc576040517f08c379a00000000000000000000000000000000000000000000000000000000081526004016102f39061248f565b60405180910390fd5b6000836fffffffffffffffffffffffffffffffff1611610351576040517f08c379a00000000000000000000000000000000000000000000000000000000081526004016103489061252f565b60405180910390fd5b60008211610394576040517f08c379a000000000000000000000000000000000000000000000000000000000815260040161038b906124af565b60405180910390fd5b600081116103d7576040517f08c379a00000000000000000000000000000000000000000000000000000000081526004016103ce9061250f565b60405180910390fd5b60006040518061012001604052803373ffffffffffffffffffffffffffffffffffffffff168152602001856fffffffffffffffffffffffffffffffff16815260200184815260200160008152602001600073ffffffffffffffffffffffffffffffffffffffff168152602001600115158152602001600067ffffffffffffffff81111561048d577f4e487b7100000000000000000000000000000000000000000000000000000000600052604160045260246000fd5b6040519080825280602002602001820160405280156104bb5781602001602082028036833780820191505090505b508152602001600067ffffffffffffffff811115610502577f4e487b7100000000000000000000000000000000000000000000000000000000600052604160045260246000fd5b6040519080825280602002602001820160405280156105305781602001602082028036833780820191505090505b5081526020016000815250905060003390508673ffffffffffffffffffffffffffffffffffffffff166342842e0e8230896040518463ffffffff1660e01b815260040161057f939291906123ae565b600060405180830381600087803b15801561059957600080fd5b505af11580156105ad573d6000803e3d6000fd5b50505050816000808973ffffffffffffffffffffffffffffffffffffffff1673ffffffffffffffffffffffffffffffffffffffff168152602001908152602001600020600088815260200190815260200160002060008201518160000160006101000a81548173ffffffffffffffffffffffffffffffffffffffff021916908373ffffffffffffffffffffffffffffffffffffffff16021790555060208201518160010160006101000a8154816fffffffffffffffffffffffffffffffff02191690836fffffffffffffffffffffffffffffffff160217905550604082015181600201556060820151816003015560808201518160040160006101000a81548173ffffffffffffffffffffffffffffffffffffffff021916908373ffffffffffffffffffffffffffffffffffffffff16021790555060a08201518160040160146101000a81548160ff02191690831515021790555060c082015181600501908051906020019061071e929190611a83565b5060e082015181600601908051906020019061073b929190611ad0565b50610100820151816007015590505050505050505050565b60007f150b7a023d4804d13e8c85fb27262cb750cf6ba9f9dd3bb30d90f482ceeb4b1f905095945050505050565b60008060008473ffffffffffffffffffffffffffffffffffffffff1673ffffffffffffffffffffffffffffffffffffffff1681526020019081526020016000206000838152602001908152602001600020905080600701548160010160009054906101000a90046fffffffffffffffffffffffffffffffff166fffffffffffffffffffffffffffffffff16610816919061269a565b341015610858576040517f08c379a000000000000000000000000000000000000000000000000000000000815260040161084f9061246f565b60405180910390fd5b8060040160149054906101000a900460ff166108a9576040517f08c379a00000000000000000000000000000000000000000000000000000000081526004016108a0906125af565b60405180910390fd5b428160020154116108ef576040517f08c379a00000000000000000000000000000000000000000000000000000000081526004016108e69061258f565b60405180910390fd5b6000600160008573ffffffffffffffffffffffffffffffffffffffff1673ffffffffffffffffffffffffffffffffffffffff168152602001908152602001600020600084815260200190815260200160002060003373ffffffffffffffffffffffffffffffffffffffff1673ffffffffffffffffffffffffffffffffffffffff168152602001908152602001600020541115610a8a5760003373ffffffffffffffffffffffffffffffffffffffff16600160008673ffffffffffffffffffffffffffffffffffffffff1673ffffffffffffffffffffffffffffffffffffffff168152602001908152602001600020600085815260200190815260200160002060003373ffffffffffffffffffffffffffffffffffffffff1673ffffffffffffffffffffffffffffffffffffffff16815260200190815260200160002054604051610a3890612399565b60006040518083038185875af1925050503d8060008114610a75576040519150601f19603f3d011682016040523d82523d6000602084013e610a7a565b606091505b5050905080610a8857600080fd5b505b34600160008573ffffffffffffffffffffffffffffffffffffffff1673ffffffffffffffffffffffffffffffffffffffff168152602001908152602001600020600084815260200190815260200160002060003373ffffffffffffffffffffffffffffffffffffffff1673ffffffffffffffffffffffffffffffffffffffff16815260200190815260200160002081905550600081600501805490501415610b7d57348160030181905550338160040160006101000a81548173ffffffffffffffffffffffffffffffffffffffff021916908373ffffffffffffffffffffffffffffffffffffffff160217905550610c6b565b600060018260050180549050610b9391906126f0565b905034826005018281548110610bd2577f4e487b7100000000000000000000000000000000000000000000000000000000600052603260045260246000fd5b906000526020600020015410610c1d576040517f08c379a0000000000000000000000000000000000000000000000000000000008152600401610c14906124cf565b60405180910390fd5b348260030181905550338260040160006101000a81548173ffffffffffffffffffffffffffffffffffffffff021916908373ffffffffffffffffffffffffffffffffffffffff160217905550505b80600601339080600181540180825580915050600190039060005260206000200160009091909190916101000a81548173ffffffffffffffffffffffffffffffffffffffff021916908373ffffffffffffffffffffffffffffffffffffffff16021790555080600501349080600181540180825580915050600190039060005260206000200160009091909190915055505050565b610d08611b5a565b60008060008573ffffffffffffffffffffffffffffffffffffffff1673ffffffffffffffffffffffffffffffffffffffff1681526020019081526020016000206000848152602001908152602001600020604051806101200160405290816000820160009054906101000a900473ffffffffffffffffffffffffffffffffffffffff1673ffffffffffffffffffffffffffffffffffffffff1673ffffffffffffffffffffffffffffffffffffffff1681526020016001820160009054906101000a90046fffffffffffffffffffffffffffffffff166fffffffffffffffffffffffffffffffff166fffffffffffffffffffffffffffffffff16815260200160028201548152602001600382015481526020016004820160009054906101000a900473ffffffffffffffffffffffffffffffffffffffff1673ffffffffffffffffffffffffffffffffffffffff1673ffffffffffffffffffffffffffffffffffffffff1681526020016004820160149054906101000a900460ff1615151515815260200160058201805480602002602001604051908101604052809291908181526020018280548015610ed957602002820191906000526020600020905b815481526020019060010190808311610ec5575b5050505050815260200160068201805480602002602001604051908101604052809291908181526020018280548015610f6757602002820191906000526020600020905b8160009054906101000a900473ffffffffffffffffffffffffffffffffffffffff1673ffffffffffffffffffffffffffffffffffffffff1681526020019060010190808311610f1d575b5050505050815260200160078201548152505090508091505092915050565b6000602052816000526040600020602052806000526040600020600091509150508060000160009054906101000a900473ffffffffffffffffffffffffffffffffffffffff16908060010160009054906101000a90046fffffffffffffffffffffffffffffffff16908060020154908060030154908060040160009054906101000a900473ffffffffffffffffffffffffffffffffffffffff16908060040160149054906101000a900460ff16908060070154905087565b60008060008473ffffffffffffffffffffffffffffffffffffffff1673ffffffffffffffffffffffffffffffffffffffff1681526020019081526020016000206000838152602001908152602001600020905042816002015411156110d8576040517f08c379a00000000000000000000000000000000000000000000000000000000081526004016110cf9061254f565b60405180910390fd5b3373ffffffffffffffffffffffffffffffffffffffff168160000160009054906101000a900473ffffffffffffffffffffffffffffffffffffffff1673ffffffffffffffffffffffffffffffffffffffff161461116a576040517f08c379a00000000000000000000000000000000000000000000000000000000081526004016111619061256f565b60405180910390fd5b8060040160149054906101000a900460ff166111bb576040517f08c379a00000000000000000000000000000000000000000000000000000000081526004016111b2906125af565b60405180910390fd5b60008160040160146101000a81548160ff021916908315150217905550600081600501805490501415611280578273ffffffffffffffffffffffffffffffffffffffff166342842e0e308360000160009054906101000a900473ffffffffffffffffffffffffffffffffffffffff16856040518463ffffffff1660e01b8152600401611249939291906123ae565b600060405180830381600087803b15801561126357600080fd5b505af1158015611277573d6000803e3d6000fd5b50505050611666565b60008160000160009054906101000a900473ffffffffffffffffffffffffffffffffffffffff1673ffffffffffffffffffffffffffffffffffffffff1682600301546040516112ce90612399565b60006040518083038185875af1925050503d806000811461130b576040519150601f19603f3d011682016040523d82523d6000602084013e611310565b606091505b505090508061131e57600080fd5b60005b82600601805490508110156115d0578260040160009054906101000a900473ffffffffffffffffffffffffffffffffffffffff1673ffffffffffffffffffffffffffffffffffffffff168360060182815481106113a7577f4e487b7100000000000000000000000000000000000000000000000000000000600052603260045260246000fd5b9060005260206000200160009054906101000a900473ffffffffffffffffffffffffffffffffffffffff1673ffffffffffffffffffffffffffffffffffffffff16146115bd57826006018181548110611429577f4e487b7100000000000000000000000000000000000000000000000000000000600052603260045260246000fd5b9060005260206000200160009054906101000a900473ffffffffffffffffffffffffffffffffffffffff1673ffffffffffffffffffffffffffffffffffffffff16600160008773ffffffffffffffffffffffffffffffffffffffff1673ffffffffffffffffffffffffffffffffffffffff168152602001908152602001600020600086815260200190815260200160002060008560060184815481106114f8577f4e487b7100000000000000000000000000000000000000000000000000000000600052603260045260246000fd5b9060005260206000200160009054906101000a900473ffffffffffffffffffffffffffffffffffffffff1673ffffffffffffffffffffffffffffffffffffffff1673ffffffffffffffffffffffffffffffffffffffff1681526020019081526020016000205460405161156a90612399565b60006040518083038185875af1925050503d80600081146115a7576040519150601f19603f3d011682016040523d82523d6000602084013e6115ac565b606091505b505080925050816115bc57600080fd5b5b80806115c8906127b4565b915050611321565b508373ffffffffffffffffffffffffffffffffffffffff166342842e0e308460040160009054906101000a900473ffffffffffffffffffffffffffffffffffffffff16866040518463ffffffff1660e01b8152600401611632939291906123ae565b600060405180830381600087803b15801561164c57600080fd5b505af1158015611660573d6000803e3d6000fd5b50505050505b505050565b60008060008473ffffffffffffffffffffffffffffffffffffffff1673ffffffffffffffffffffffffffffffffffffffff168152602001908152602001600020600083815260200190815260200160002090503373ffffffffffffffffffffffffffffffffffffffff168160000160009054906101000a900473ffffffffffffffffffffffffffffffffffffffff1673ffffffffffffffffffffffffffffffffffffffff1614611750576040517f08c379a00000000000000000000000000000000000000000000000000000000081526004016117479061256f565b60405180910390fd5b8060040160149054906101000a900460ff166117a1576040517f08c379a0000000000000000000000000000000000000000000000000000000008152600401611798906125af565b60405180910390fd5b60008160040160146101000a81548160ff021916908315150217905550600080600090505b82600601805490508110156119b757826006018181548110611811577f4e487b7100000000000000000000000000000000000000000000000000000000600052603260045260246000fd5b9060005260206000200160009054906101000a900473ffffffffffffffffffffffffffffffffffffffff1673ffffffffffffffffffffffffffffffffffffffff16600160008773ffffffffffffffffffffffffffffffffffffffff1673ffffffffffffffffffffffffffffffffffffffff168152602001908152602001600020600086815260200190815260200160002060008560060184815481106118e0577f4e487b7100000000000000000000000000000000000000000000000000000000600052603260045260246000fd5b9060005260206000200160009054906101000a900473ffffffffffffffffffffffffffffffffffffffff1673ffffffffffffffffffffffffffffffffffffffff1673ffffffffffffffffffffffffffffffffffffffff1681526020019081526020016000205460405161195290612399565b60006040518083038185875af1925050503d806000811461198f576040519150601f19603f3d011682016040523d82523d6000602084013e611994565b606091505b505080925050816119a457600080fd5b80806119af906127b4565b9150506117c6565b508373ffffffffffffffffffffffffffffffffffffffff166342842e0e308460000160009054906101000a900473ffffffffffffffffffffffffffffffffffffffff16866040518463ffffffff1660e01b8152600401611a19939291906123ae565b600060405180830381600087803b158015611a3357600080fd5b505af1158015611a47573d6000803e3d6000fd5b5050505050505050565b600160205282600052604060002060205281600052604060002060205280600052604060002060009250925050505481565b828054828255906000526020600020908101928215611abf579160200282015b82811115611abe578251825591602001919060010190611aa3565b5b509050611acc9190611be6565b5090565b828054828255906000526020600020908101928215611b49579160200282015b82811115611b485782518260006101000a81548173ffffffffffffffffffffffffffffffffffffffff021916908373ffffffffffffffffffffffffffffffffffffffff16021790555091602001919060010190611af0565b5b509050611b569190611be6565b5090565b604051806101200160405280600073ffffffffffffffffffffffffffffffffffffffff16815260200160006fffffffffffffffffffffffffffffffff1681526020016000815260200160008152602001600073ffffffffffffffffffffffffffffffffffffffff1681526020016000151581526020016060815260200160608152602001600081525090565b5b80821115611bff576000816000905550600101611be7565b5090565b600081359050611c128161282c565b92915050565b60008083601f840112611c2a57600080fd5b8235905067ffffffffffffffff811115611c4357600080fd5b602083019150836001820283011115611c5b57600080fd5b9250929050565b600081359050611c7181612843565b92915050565b600081359050611c868161285a565b92915050565b600080600080600060808688031215611ca457600080fd5b6000611cb288828901611c03565b9550506020611cc388828901611c03565b9450506040611cd488828901611c77565b935050606086013567ffffffffffffffff811115611cf157600080fd5b611cfd88828901611c18565b92509250509295509295909350565b60008060408385031215611d1f57600080fd5b6000611d2d85828601611c03565b9250506020611d3e85828601611c77565b9150509250929050565b600080600060608486031215611d5d57600080fd5b6000611d6b86828701611c03565b9350506020611d7c86828701611c77565b9250506040611d8d86828701611c03565b9150509250925092565b600080600080600060a08688031215611daf57600080fd5b6000611dbd88828901611c03565b9550506020611dce88828901611c77565b9450506040611ddf88828901611c62565b9350506060611df088828901611c77565b9250506080611e0188828901611c77565b9150509295509295909350565b6000611e1a8383611e3e565b60208301905092915050565b6000611e32838361237b565b60208301905092915050565b611e4781612724565b82525050565b611e5681612724565b82525050565b6000611e678261262c565b611e71818561265c565b9350611e7c8361260c565b8060005b83811015611ead578151611e948882611e0e565b9750611e9f83612642565b925050600181019050611e80565b5085935050505092915050565b6000611ec582612637565b611ecf818561266d565b9350611eda8361261c565b8060005b83811015611f0b578151611ef28882611e26565b9750611efd8361264f565b925050600181019050611ede565b5085935050505092915050565b611f2181612736565b82525050565b611f3081612736565b82525050565b611f3f81612742565b82525050565b6000611f52603283612689565b91507f596f75722062696420646f6573206e6f74206d65657420746865206d696e696d60008301527f756d20707269636520696e6372656d656e7400000000000000000000000000006020830152604082019050919050565b6000611fb8601783612689565b91507f496e76616c6964204e46542061646472657373203078300000000000000000006000830152602082019050919050565b6000611ff8601683612689565b91507f496e76616c6964206475726174696f6e2076616c7565000000000000000000006000830152602082019050919050565b6000612038602783612689565b91507f43757272656e74206d61782062696420697320686967686572207468616e207960008301527f6f757220626964000000000000000000000000000000000000000000000000006020830152604082019050919050565b600061209e601383612689565b91507f496e76616c6964204164647265737320307830000000000000000000000000006000830152602082019050919050565b60006120de602183612689565b91507f507269636520696e6372656d656e74206d75737420626520677265617465722060008301527f30000000000000000000000000000000000000000000000000000000000000006020830152604082019050919050565b6000612144601b83612689565b91507f50726963652073686f756c64206265206d6f7265207468616e203000000000006000830152602082019050919050565b6000612184601983612689565b91507f446561646c696e6520646964206e6f74207061737320796574000000000000006000830152602082019050919050565b60006121c460008361267e565b9150600082019050919050565b60006121de600a83612689565b91507f4e6f742073656c6c6572000000000000000000000000000000000000000000006000830152602082019050919050565b600061221e601783612689565b91507f446561646c696e6520616c7265616479207061737365640000000000000000006000830152602082019050919050565b600061225e601283612689565b91507f61756374696f6e206e6f742061637469766500000000000000000000000000006000830152602082019050919050565b6000610120830160008301516122aa6000860182611e3e565b5060208301516122bd602086018261235d565b5060408301516122d0604086018261237b565b5060608301516122e3606086018261237b565b5060808301516122f66080860182611e3e565b5060a083015161230960a0860182611f18565b5060c083015184820360c08601526123218282611eba565b91505060e083015184820360e086015261233b8282611e5c565b91505061010083015161235261010086018261237b565b508091505092915050565b6123668161276e565b82525050565b6123758161276e565b82525050565b612384816127aa565b82525050565b612393816127aa565b82525050565b60006123a4826121b7565b9150819050919050565b60006060820190506123c36000830186611e4d565b6123d06020830185611e4d565b6123dd604083018461238a565b949350505050565b600060e0820190506123fa600083018a611e4d565b612407602083018961236c565b612414604083018861238a565b612421606083018761238a565b61242e6080830186611e4d565b61243b60a0830185611f27565b61244860c083018461238a565b98975050505050505050565b60006020820190506124696000830184611f36565b92915050565b6000602082019050818103600083015261248881611f45565b9050919050565b600060208201905081810360008301526124a881611fab565b9050919050565b600060208201905081810360008301526124c881611feb565b9050919050565b600060208201905081810360008301526124e88161202b565b9050919050565b6000602082019050818103600083015261250881612091565b9050919050565b60006020820190508181036000830152612528816120d1565b9050919050565b6000602082019050818103600083015261254881612137565b9050919050565b6000602082019050818103600083015261256881612177565b9050919050565b60006020820190508181036000830152612588816121d1565b9050919050565b600060208201905081810360008301526125a881612211565b9050919050565b600060208201905081810360008301526125c881612251565b9050919050565b600060208201905081810360008301526125e98184612291565b905092915050565b6000602082019050612606600083018461238a565b92915050565b6000819050602082019050919050565b6000819050602082019050919050565b600081519050919050565b600081519050919050565b6000602082019050919050565b6000602082019050919050565b600082825260208201905092915050565b600082825260208201905092915050565b600081905092915050565b600082825260208201905092915050565b60006126a5826127aa565b91506126b0836127aa565b9250827fffffffffffffffffffffffffffffffffffffffffffffffffffffffffffffffff038211156126e5576126e46127fd565b5b828201905092915050565b60006126fb826127aa565b9150612706836127aa565b925082821015612719576127186127fd565b5b828203905092915050565b600061272f8261278a565b9050919050565b60008115159050919050565b60007fffffffff0000000000000000000000000000000000000000000000000000000082169050919050565b60006fffffffffffffffffffffffffffffffff82169050919050565b600073ffffffffffffffffffffffffffffffffffffffff82169050919050565b6000819050919050565b60006127bf826127aa565b91507fffffffffffffffffffffffffffffffffffffffffffffffffffffffffffffffff8214156127f2576127f16127fd565b5b600182019050919050565b7f4e487b7100000000000000000000000000000000000000000000000000000000600052601160045260246000fd5b61283581612724565b811461284057600080fd5b50565b61284c8161276e565b811461285757600080fd5b50565b612863816127aa565b811461286e57600080fd5b5056fea2646970667358221220f600223982323b272a57d6834fb6261b024d837a190eab7a8de49743f5de938b64736f6c63430008000033",
  "devdoc": {
    "kind": "dev",
    "methods": {},
    "version": 1
  },
  "userdoc": {
    "kind": "user",
    "methods": {
      "bid(address,uint256)": {
        "notice": "Users bid for a particular nft, the max bid is compared and set if the current bid id highest"
      },
      "cancelAuction(address,uint256)": {
        "notice": "Called by the seller if they want to cancel the auction for their nft so the bidders get back the locked eeth and the seller get's back the nft"
      },
      "createTokenAuction(address,uint256,uint128,uint256,uint256)": {
        "notice": "Seller puts the item on auction"
      },
      "executeSale(address,uint256)": {
        "notice": "Called by the seller when the auction duration is over the hightest bid user get's the nft and other bidders get eth back"
      }
    },
    "version": 1
  },
  "storageLayout": {
    "storage": [
      {
        "astId": 1568,
        "contract": "contracts/AuctionV2.sol:AuctionV2",
        "label": "tokenToAuction",
        "offset": 0,
        "slot": "0",
        "type": "t_mapping(t_address,t_mapping(t_uint256,t_struct(tokenDetails)1561_storage))"
      },
      {
        "astId": 1576,
        "contract": "contracts/AuctionV2.sol:AuctionV2",
        "label": "bids",
        "offset": 0,
        "slot": "1",
        "type": "t_mapping(t_address,t_mapping(t_uint256,t_mapping(t_address,t_uint256)))"
      }
    ],
    "types": {
      "t_address": {
        "encoding": "inplace",
        "label": "address",
        "numberOfBytes": "20"
      },
      "t_array(t_address)dyn_storage": {
        "base": "t_address",
        "encoding": "dynamic_array",
        "label": "address[]",
        "numberOfBytes": "32"
      },
      "t_array(t_uint256)dyn_storage": {
        "base": "t_uint256",
        "encoding": "dynamic_array",
        "label": "uint256[]",
        "numberOfBytes": "32"
      },
      "t_bool": {
        "encoding": "inplace",
        "label": "bool",
        "numberOfBytes": "1"
      },
      "t_mapping(t_address,t_mapping(t_uint256,t_mapping(t_address,t_uint256)))": {
        "encoding": "mapping",
        "key": "t_address",
        "label": "mapping(address => mapping(uint256 => mapping(address => uint256)))",
        "numberOfBytes": "32",
        "value": "t_mapping(t_uint256,t_mapping(t_address,t_uint256))"
      },
      "t_mapping(t_address,t_mapping(t_uint256,t_struct(tokenDetails)1561_storage))": {
        "encoding": "mapping",
        "key": "t_address",
        "label": "mapping(address => mapping(uint256 => struct AuctionV2.tokenDetails))",
        "numberOfBytes": "32",
        "value": "t_mapping(t_uint256,t_struct(tokenDetails)1561_storage)"
      },
      "t_mapping(t_address,t_uint256)": {
        "encoding": "mapping",
        "key": "t_address",
        "label": "mapping(address => uint256)",
        "numberOfBytes": "32",
        "value": "t_uint256"
      },
      "t_mapping(t_uint256,t_mapping(t_address,t_uint256))": {
        "encoding": "mapping",
        "key": "t_uint256",
        "label": "mapping(uint256 => mapping(address => uint256))",
        "numberOfBytes": "32",
        "value": "t_mapping(t_address,t_uint256)"
      },
      "t_mapping(t_uint256,t_struct(tokenDetails)1561_storage)": {
        "encoding": "mapping",
        "key": "t_uint256",
        "label": "mapping(uint256 => struct AuctionV2.tokenDetails)",
        "numberOfBytes": "32",
        "value": "t_struct(tokenDetails)1561_storage"
      },
      "t_struct(tokenDetails)1561_storage": {
        "encoding": "inplace",
        "label": "struct AuctionV2.tokenDetails",
        "members": [
          {
            "astId": 1542,
            "contract": "contracts/AuctionV2.sol:AuctionV2",
            "label": "seller",
            "offset": 0,
            "slot": "0",
            "type": "t_address"
          },
          {
            "astId": 1544,
            "contract": "contracts/AuctionV2.sol:AuctionV2",
            "label": "price",
            "offset": 0,
            "slot": "1",
            "type": "t_uint128"
          },
          {
            "astId": 1546,
            "contract": "contracts/AuctionV2.sol:AuctionV2",
            "label": "duration",
            "offset": 0,
            "slot": "2",
            "type": "t_uint256"
          },
          {
            "astId": 1548,
            "contract": "contracts/AuctionV2.sol:AuctionV2",
            "label": "maxBid",
            "offset": 0,
            "slot": "3",
            "type": "t_uint256"
          },
          {
            "astId": 1550,
            "contract": "contracts/AuctionV2.sol:AuctionV2",
            "label": "maxBidUser",
            "offset": 0,
            "slot": "4",
            "type": "t_address"
          },
          {
            "astId": 1552,
            "contract": "contracts/AuctionV2.sol:AuctionV2",
            "label": "isActive",
            "offset": 20,
            "slot": "4",
            "type": "t_bool"
          },
          {
            "astId": 1555,
            "contract": "contracts/AuctionV2.sol:AuctionV2",
            "label": "bidAmounts",
            "offset": 0,
            "slot": "5",
            "type": "t_array(t_uint256)dyn_storage"
          },
          {
            "astId": 1558,
            "contract": "contracts/AuctionV2.sol:AuctionV2",
            "label": "users",
            "offset": 0,
            "slot": "6",
            "type": "t_array(t_address)dyn_storage"
          },
          {
            "astId": 1560,
            "contract": "contracts/AuctionV2.sol:AuctionV2",
            "label": "minIncrement",
            "offset": 0,
            "slot": "7",
            "type": "t_uint256"
          }
        ],
        "numberOfBytes": "256"
      },
      "t_uint128": {
        "encoding": "inplace",
        "label": "uint128",
        "numberOfBytes": "16"
      },
      "t_uint256": {
        "encoding": "inplace",
        "label": "uint256",
        "numberOfBytes": "32"
      }
    }
  }
}