{
  "address": "0xB19417D9D2F4d634fCcAF5ca492DC36ce1f41E9C",
  "abi": [
    {
      "inputs": [
        {
          "internalType": "address",
          "name": "_nft",
          "type": "address"
        },
        {
          "internalType": "uint256",
          "name": "_tokenId",
          "type": "uint256"
        }
      ],
      "name": "bid",
      "outputs": [],
      "stateMutability": "payable",
      "type": "function"
    },
    {
      "inputs": [
        {
          "internalType": "address",
          "name": "",
          "type": "address"
        },
        {
          "internalType": "uint256",
          "name": "",
          "type": "uint256"
        },
        {
          "internalType": "address",
          "name": "",
          "type": "address"
        }
      ],
      "name": "bids",
      "outputs": [
        {
          "internalType": "uint256",
          "name": "",
          "type": "uint256"
        }
      ],
      "stateMutability": "view",
      "type": "function"
    },
    {
      "inputs": [
        {
          "internalType": "address",
          "name": "_nft",
          "type": "address"
        },
        {
          "internalType": "uint256",
          "name": "_tokenId",
          "type": "uint256"
        }
      ],
      "name": "cancelAuction",
      "outputs": [],
      "stateMutability": "nonpayable",
      "type": "function"
    },
    {
      "inputs": [
        {
          "internalType": "address",
          "name": "_nft",
          "type": "address"
        },
        {
          "internalType": "uint256",
          "name": "_tokenId",
          "type": "uint256"
        },
        {
          "internalType": "uint128",
          "name": "_price",
          "type": "uint128"
        },
        {
          "internalType": "uint256",
          "name": "_duration",
          "type": "uint256"
        }
      ],
      "name": "createTokenAuction",
      "outputs": [],
      "stateMutability": "nonpayable",
      "type": "function"
    },
    {
      "inputs": [
        {
          "internalType": "address",
          "name": "_nft",
          "type": "address"
        },
        {
          "internalType": "uint256",
          "name": "_tokenId",
          "type": "uint256"
        }
      ],
      "name": "executeSale",
      "outputs": [],
      "stateMutability": "nonpayable",
      "type": "function"
    },
    {
      "inputs": [
        {
          "internalType": "address",
          "name": "_nft",
          "type": "address"
        },
        {
          "internalType": "uint256",
          "name": "_tokenId",
          "type": "uint256"
        }
      ],
      "name": "getTokenAuctionDetails",
      "outputs": [
        {
          "components": [
            {
              "internalType": "address",
              "name": "seller",
              "type": "address"
            },
            {
              "internalType": "uint128",
              "name": "price",
              "type": "uint128"
            },
            {
              "internalType": "uint256",
              "name": "duration",
              "type": "uint256"
            },
            {
              "internalType": "uint256",
              "name": "maxBid",
              "type": "uint256"
            },
            {
              "internalType": "address",
              "name": "maxBidUser",
              "type": "address"
            },
            {
              "internalType": "bool",
              "name": "isActive",
              "type": "bool"
            },
            {
              "internalType": "uint256[]",
              "name": "bidAmounts",
              "type": "uint256[]"
            },
            {
              "internalType": "address[]",
              "name": "users",
              "type": "address[]"
            },
            {
              "internalType": "uint256",
              "name": "minIncrement",
              "type": "uint256"
            }
          ],
          "internalType": "struct Auction.tokenDetails",
          "name": "",
          "type": "tuple"
        }
      ],
      "stateMutability": "view",
      "type": "function"
    },
    {
      "inputs": [
        {
          "internalType": "address",
          "name": "",
          "type": "address"
        },
        {
          "internalType": "address",
          "name": "",
          "type": "address"
        },
        {
          "internalType": "uint256",
          "name": "",
          "type": "uint256"
        },
        {
          "internalType": "bytes",
          "name": "",
          "type": "bytes"
        }
      ],
      "name": "onERC721Received",
      "outputs": [
        {
          "internalType": "bytes4",
          "name": "",
          "type": "bytes4"
        }
      ],
      "stateMutability": "nonpayable",
      "type": "function"
    },
    {
      "inputs": [
        {
          "internalType": "address",
          "name": "",
          "type": "address"
        },
        {
          "internalType": "uint256",
          "name": "",
          "type": "uint256"
        }
      ],
      "name": "tokenToAuction",
      "outputs": [
        {
          "internalType": "address",
          "name": "seller",
          "type": "address"
        },
        {
          "internalType": "uint128",
          "name": "price",
          "type": "uint128"
        },
        {
          "internalType": "uint256",
          "name": "duration",
          "type": "uint256"
        },
        {
          "internalType": "uint256",
          "name": "maxBid",
          "type": "uint256"
        },
        {
          "internalType": "address",
          "name": "maxBidUser",
          "type": "address"
        },
        {
          "internalType": "bool",
          "name": "isActive",
          "type": "bool"
        },
        {
          "internalType": "uint256",
          "name": "minIncrement",
          "type": "uint256"
        }
      ],
      "stateMutability": "view",
      "type": "function"
    },
    {
      "stateMutability": "payable",
      "type": "receive"
    }
  ],
  "transactionHash": "0xb5c636c1c35fad98dbb915ac042ca36a9dcb97382523234e852c7343ae3313b4",
  "args": [],
  "solcInputHash": "f260fafe9ebdcc31020bc6dedb1ec755",
  "bytecode": "0x608060405234801561001057600080fd5b50612764806100206000396000f3fe60806040526004361061007f5760003560e01c80637bed72321161004e5780637bed723214610164578063859b97fe1461018d578063cf680c69146101b6578063dd768922146101df57610086565b8063150b7a021461008b57806359d667a5146100c8578063722565c5146100e45780637792ba5f1461012157610086565b3661008657005b600080fd5b34801561009757600080fd5b506100b260048036038101906100ad9190611c39565b61021c565b6040516100bf9190612387565b60405180910390f35b6100e260048036038101906100dd9190611cb9565b61024a565b005b3480156100f057600080fd5b5061010b60048036038101906101069190611cb9565b6107ba565b60405161011891906124e2565b60405180910390f35b34801561012d57600080fd5b5061014860048036038101906101439190611cb9565b610a40565b60405161015b9796959493929190612318565b60405180910390f35b34801561017057600080fd5b5061018b60048036038101906101869190611cb9565b610af8565b005b34801561019957600080fd5b506101b460048036038101906101af9190611cb9565b611125565b005b3480156101c257600080fd5b506101dd60048036038101906101d89190611d44565b61150b565b005b3480156101eb57600080fd5b5061020660048036038101906102019190611cf5565b6119fe565b6040516102139190612504565b60405180910390f35b60007f150b7a023d4804d13e8c85fb27262cb750cf6ba9f9dd3bb30d90f482ceeb4b1f905095945050505050565b60008060008473ffffffffffffffffffffffffffffffffffffffff1673ffffffffffffffffffffffffffffffffffffffff168152602001908152602001600020600083815260200190815260200160002090508060010160009054906101000a90046fffffffffffffffffffffffffffffffff166fffffffffffffffffffffffffffffffff16341015610312576040517f08c379a0000000000000000000000000000000000000000000000000000000008152600401610309906124a2565b60405180910390fd5b8060040160149054906101000a900460ff16610363576040517f08c379a000000000000000000000000000000000000000000000000000000000815260040161035a906124c2565b60405180910390fd5b428160020154116103a9576040517f08c379a00000000000000000000000000000000000000000000000000000000081526004016103a090612482565b60405180910390fd5b6000600160008573ffffffffffffffffffffffffffffffffffffffff1673ffffffffffffffffffffffffffffffffffffffff168152602001908152602001600020600084815260200190815260200160002060003373ffffffffffffffffffffffffffffffffffffffff1673ffffffffffffffffffffffffffffffffffffffff1681526020019081526020016000205411156105445760003373ffffffffffffffffffffffffffffffffffffffff16600160008673ffffffffffffffffffffffffffffffffffffffff1673ffffffffffffffffffffffffffffffffffffffff168152602001908152602001600020600085815260200190815260200160002060003373ffffffffffffffffffffffffffffffffffffffff1673ffffffffffffffffffffffffffffffffffffffff168152602001908152602001600020546040516104f2906122cc565b60006040518083038185875af1925050503d806000811461052f576040519150601f19603f3d011682016040523d82523d6000602084013e610534565b606091505b505090508061054257600080fd5b505b34600160008573ffffffffffffffffffffffffffffffffffffffff1673ffffffffffffffffffffffffffffffffffffffff168152602001908152602001600020600084815260200190815260200160002060003373ffffffffffffffffffffffffffffffffffffffff1673ffffffffffffffffffffffffffffffffffffffff1681526020019081526020016000208190555060008160050180549050141561063757348160030181905550338160040160006101000a81548173ffffffffffffffffffffffffffffffffffffffff021916908373ffffffffffffffffffffffffffffffffffffffff160217905550610725565b60006001826005018054905061064d91906125ad565b90503482600501828154811061068c577f4e487b7100000000000000000000000000000000000000000000000000000000600052603260045260246000fd5b9060005260206000200154106106d7576040517f08c379a00000000000000000000000000000000000000000000000000000000081526004016106ce906123c2565b60405180910390fd5b348260030181905550338260040160006101000a81548173ffffffffffffffffffffffffffffffffffffffff021916908373ffffffffffffffffffffffffffffffffffffffff160217905550505b80600601339080600181540180825580915050600190039060005260206000200160009091909190916101000a81548173ffffffffffffffffffffffffffffffffffffffff021916908373ffffffffffffffffffffffffffffffffffffffff16021790555080600501349080600181540180825580915050600190039060005260206000200160009091909190915055505050565b6107c2611a30565b60008060008573ffffffffffffffffffffffffffffffffffffffff1673ffffffffffffffffffffffffffffffffffffffff1681526020019081526020016000206000848152602001908152602001600020604051806101200160405290816000820160009054906101000a900473ffffffffffffffffffffffffffffffffffffffff1673ffffffffffffffffffffffffffffffffffffffff1673ffffffffffffffffffffffffffffffffffffffff1681526020016001820160009054906101000a90046fffffffffffffffffffffffffffffffff166fffffffffffffffffffffffffffffffff166fffffffffffffffffffffffffffffffff16815260200160028201548152602001600382015481526020016004820160009054906101000a900473ffffffffffffffffffffffffffffffffffffffff1673ffffffffffffffffffffffffffffffffffffffff1673ffffffffffffffffffffffffffffffffffffffff1681526020016004820160149054906101000a900460ff161515151581526020016005820180548060200260200160405190810160405280929190818152602001828054801561099357602002820191906000526020600020905b81548152602001906001019080831161097f575b5050505050815260200160068201805480602002602001604051908101604052809291908181526020018280548015610a2157602002820191906000526020600020905b8160009054906101000a900473ffffffffffffffffffffffffffffffffffffffff1673ffffffffffffffffffffffffffffffffffffffff16815260200190600101908083116109d7575b5050505050815260200160078201548152505090508091505092915050565b6000602052816000526040600020602052806000526040600020600091509150508060000160009054906101000a900473ffffffffffffffffffffffffffffffffffffffff16908060010160009054906101000a90046fffffffffffffffffffffffffffffffff16908060020154908060030154908060040160009054906101000a900473ffffffffffffffffffffffffffffffffffffffff16908060040160149054906101000a900460ff16908060070154905087565b60008060008473ffffffffffffffffffffffffffffffffffffffff1673ffffffffffffffffffffffffffffffffffffffff168152602001908152602001600020600083815260200190815260200160002090504281600201541115610b92576040517f08c379a0000000000000000000000000000000000000000000000000000000008152600401610b8990612442565b60405180910390fd5b3373ffffffffffffffffffffffffffffffffffffffff168160000160009054906101000a900473ffffffffffffffffffffffffffffffffffffffff1673ffffffffffffffffffffffffffffffffffffffff1614610c24576040517f08c379a0000000000000000000000000000000000000000000000000000000008152600401610c1b90612462565b60405180910390fd5b8060040160149054906101000a900460ff16610c75576040517f08c379a0000000000000000000000000000000000000000000000000000000008152600401610c6c906124c2565b60405180910390fd5b60008160040160146101000a81548160ff021916908315150217905550600081600501805490501415610d3a578273ffffffffffffffffffffffffffffffffffffffff166342842e0e308360000160009054906101000a900473ffffffffffffffffffffffffffffffffffffffff16856040518463ffffffff1660e01b8152600401610d03939291906122e1565b600060405180830381600087803b158015610d1d57600080fd5b505af1158015610d31573d6000803e3d6000fd5b50505050611120565b60008160000160009054906101000a900473ffffffffffffffffffffffffffffffffffffffff1673ffffffffffffffffffffffffffffffffffffffff168260030154604051610d88906122cc565b60006040518083038185875af1925050503d8060008114610dc5576040519150601f19603f3d011682016040523d82523d6000602084013e610dca565b606091505b5050905080610dd857600080fd5b60005b826006018054905081101561108a578260040160009054906101000a900473ffffffffffffffffffffffffffffffffffffffff1673ffffffffffffffffffffffffffffffffffffffff16836006018281548110610e61577f4e487b7100000000000000000000000000000000000000000000000000000000600052603260045260246000fd5b9060005260206000200160009054906101000a900473ffffffffffffffffffffffffffffffffffffffff1673ffffffffffffffffffffffffffffffffffffffff161461107757826006018181548110610ee3577f4e487b7100000000000000000000000000000000000000000000000000000000600052603260045260246000fd5b9060005260206000200160009054906101000a900473ffffffffffffffffffffffffffffffffffffffff1673ffffffffffffffffffffffffffffffffffffffff16600160008773ffffffffffffffffffffffffffffffffffffffff1673ffffffffffffffffffffffffffffffffffffffff16815260200190815260200160002060008681526020019081526020016000206000856006018481548110610fb2577f4e487b7100000000000000000000000000000000000000000000000000000000600052603260045260246000fd5b9060005260206000200160009054906101000a900473ffffffffffffffffffffffffffffffffffffffff1673ffffffffffffffffffffffffffffffffffffffff1673ffffffffffffffffffffffffffffffffffffffff16815260200190815260200160002054604051611024906122cc565b60006040518083038185875af1925050503d8060008114611061576040519150601f19603f3d011682016040523d82523d6000602084013e611066565b606091505b5050809250508161107657600080fd5b5b808061108290612671565b915050610ddb565b508373ffffffffffffffffffffffffffffffffffffffff166342842e0e308460040160009054906101000a900473ffffffffffffffffffffffffffffffffffffffff16866040518463ffffffff1660e01b81526004016110ec939291906122e1565b600060405180830381600087803b15801561110657600080fd5b505af115801561111a573d6000803e3d6000fd5b50505050505b505050565b60008060008473ffffffffffffffffffffffffffffffffffffffff1673ffffffffffffffffffffffffffffffffffffffff168152602001908152602001600020600083815260200190815260200160002090503373ffffffffffffffffffffffffffffffffffffffff168160000160009054906101000a900473ffffffffffffffffffffffffffffffffffffffff1673ffffffffffffffffffffffffffffffffffffffff161461120a576040517f08c379a000000000000000000000000000000000000000000000000000000000815260040161120190612462565b60405180910390fd5b8060040160149054906101000a900460ff1661125b576040517f08c379a0000000000000000000000000000000000000000000000000000000008152600401611252906124c2565b60405180910390fd5b60008160040160146101000a81548160ff021916908315150217905550600080600090505b8260060180549050811015611471578260060181815481106112cb577f4e487b7100000000000000000000000000000000000000000000000000000000600052603260045260246000fd5b9060005260206000200160009054906101000a900473ffffffffffffffffffffffffffffffffffffffff1673ffffffffffffffffffffffffffffffffffffffff16600160008773ffffffffffffffffffffffffffffffffffffffff1673ffffffffffffffffffffffffffffffffffffffff1681526020019081526020016000206000868152602001908152602001600020600085600601848154811061139a577f4e487b7100000000000000000000000000000000000000000000000000000000600052603260045260246000fd5b9060005260206000200160009054906101000a900473ffffffffffffffffffffffffffffffffffffffff1673ffffffffffffffffffffffffffffffffffffffff1673ffffffffffffffffffffffffffffffffffffffff1681526020019081526020016000205460405161140c906122cc565b60006040518083038185875af1925050503d8060008114611449576040519150601f19603f3d011682016040523d82523d6000602084013e61144e565b606091505b5050809250508161145e57600080fd5b808061146990612671565b915050611280565b508373ffffffffffffffffffffffffffffffffffffffff166342842e0e308460000160009054906101000a900473ffffffffffffffffffffffffffffffffffffffff16866040518463ffffffff1660e01b81526004016114d3939291906122e1565b600060405180830381600087803b1580156114ed57600080fd5b505af1158015611501573d6000803e3d6000fd5b5050505050505050565b600073ffffffffffffffffffffffffffffffffffffffff163373ffffffffffffffffffffffffffffffffffffffff16141561157b576040517f08c379a000000000000000000000000000000000000000000000000000000000815260040161157290612422565b60405180910390fd5b600073ffffffffffffffffffffffffffffffffffffffff168473ffffffffffffffffffffffffffffffffffffffff1614156115eb576040517f08c379a00000000000000000000000000000000000000000000000000000000081526004016115e290612402565b60405180910390fd5b6000826fffffffffffffffffffffffffffffffff1611611640576040517f08c379a0000000000000000000000000000000000000000000000000000000008152600401611637906123e2565b60405180910390fd5b60008111611683576040517f08c379a000000000000000000000000000000000000000000000000000000000815260040161167a906123a2565b60405180910390fd5b60006040518061012001604052803373ffffffffffffffffffffffffffffffffffffffff168152602001846fffffffffffffffffffffffffffffffff16815260200183815260200160008152602001600073ffffffffffffffffffffffffffffffffffffffff168152602001600115158152602001600067ffffffffffffffff811115611739577f4e487b7100000000000000000000000000000000000000000000000000000000600052604160045260246000fd5b6040519080825280602002602001820160405280156117675781602001602082028036833780820191505090505b508152602001600067ffffffffffffffff8111156117ae577f4e487b7100000000000000000000000000000000000000000000000000000000600052604160045260246000fd5b6040519080825280602002602001820160405280156117dc5781602001602082028036833780820191505090505b5081526020016000815250905060003390508573ffffffffffffffffffffffffffffffffffffffff166342842e0e8230886040518463ffffffff1660e01b815260040161182b939291906122e1565b600060405180830381600087803b15801561184557600080fd5b505af1158015611859573d6000803e3d6000fd5b50505050816000808873ffffffffffffffffffffffffffffffffffffffff1673ffffffffffffffffffffffffffffffffffffffff168152602001908152602001600020600087815260200190815260200160002060008201518160000160006101000a81548173ffffffffffffffffffffffffffffffffffffffff021916908373ffffffffffffffffffffffffffffffffffffffff16021790555060208201518160010160006101000a8154816fffffffffffffffffffffffffffffffff02191690836fffffffffffffffffffffffffffffffff160217905550604082015181600201556060820151816003015560808201518160040160006101000a81548173ffffffffffffffffffffffffffffffffffffffff021916908373ffffffffffffffffffffffffffffffffffffffff16021790555060a08201518160040160146101000a81548160ff02191690831515021790555060c08201518160050190805190602001906119ca929190611abc565b5060e08201518160060190805190602001906119e7929190611b09565b506101008201518160070155905050505050505050565b600160205282600052604060002060205281600052604060002060205280600052604060002060009250925050505481565b604051806101200160405280600073ffffffffffffffffffffffffffffffffffffffff16815260200160006fffffffffffffffffffffffffffffffff1681526020016000815260200160008152602001600073ffffffffffffffffffffffffffffffffffffffff1681526020016000151581526020016060815260200160608152602001600081525090565b828054828255906000526020600020908101928215611af8579160200282015b82811115611af7578251825591602001919060010190611adc565b5b509050611b059190611b93565b5090565b828054828255906000526020600020908101928215611b82579160200282015b82811115611b815782518260006101000a81548173ffffffffffffffffffffffffffffffffffffffff021916908373ffffffffffffffffffffffffffffffffffffffff16021790555091602001919060010190611b29565b5b509050611b8f9190611b93565b5090565b5b80821115611bac576000816000905550600101611b94565b5090565b600081359050611bbf816126e9565b92915050565b60008083601f840112611bd757600080fd5b8235905067ffffffffffffffff811115611bf057600080fd5b602083019150836001820283011115611c0857600080fd5b9250929050565b600081359050611c1e81612700565b92915050565b600081359050611c3381612717565b92915050565b600080600080600060808688031215611c5157600080fd5b6000611c5f88828901611bb0565b9550506020611c7088828901611bb0565b9450506040611c8188828901611c24565b935050606086013567ffffffffffffffff811115611c9e57600080fd5b611caa88828901611bc5565b92509250509295509295909350565b60008060408385031215611ccc57600080fd5b6000611cda85828601611bb0565b9250506020611ceb85828601611c24565b9150509250929050565b600080600060608486031215611d0a57600080fd5b6000611d1886828701611bb0565b9350506020611d2986828701611c24565b9250506040611d3a86828701611bb0565b9150509250925092565b60008060008060808587031215611d5a57600080fd5b6000611d6887828801611bb0565b9450506020611d7987828801611c24565b9350506040611d8a87828801611c0f565b9250506060611d9b87828801611c24565b91505092959194509250565b6000611db38383611dd7565b60208301905092915050565b6000611dcb83836122ae565b60208301905092915050565b611de0816125e1565b82525050565b611def816125e1565b82525050565b6000611e008261253f565b611e0a818561256f565b9350611e158361251f565b8060005b83811015611e46578151611e2d8882611da7565b9750611e3883612555565b925050600181019050611e19565b5085935050505092915050565b6000611e5e8261254a565b611e688185612580565b9350611e738361252f565b8060005b83811015611ea4578151611e8b8882611dbf565b9750611e9683612562565b925050600181019050611e77565b5085935050505092915050565b611eba816125f3565b82525050565b611ec9816125f3565b82525050565b611ed8816125ff565b82525050565b6000611eeb60168361259c565b91507f496e76616c6964206475726174696f6e2076616c7565000000000000000000006000830152602082019050919050565b6000611f2b60278361259c565b91507f43757272656e74206d61782062696420697320686967686572207468616e207960008301527f6f757220626964000000000000000000000000000000000000000000000000006020830152604082019050919050565b6000611f91601b8361259c565b91507f50726963652073686f756c64206265206d6f7265207468616e203000000000006000830152602082019050919050565b6000611fd1600f8361259c565b91507f496e76616c6964204163636f756e7400000000000000000000000000000000006000830152602082019050919050565b6000612011600f8361259c565b91507f496e76616c6964204164647265737300000000000000000000000000000000006000830152602082019050919050565b600061205160198361259c565b91507f446561646c696e6520646964206e6f74207061737320796574000000000000006000830152602082019050919050565b6000612091600083612591565b9150600082019050919050565b60006120ab600a8361259c565b91507f4e6f742073656c6c6572000000000000000000000000000000000000000000006000830152602082019050919050565b60006120eb60178361259c565b91507f446561646c696e6520616c7265616479207061737365640000000000000000006000830152602082019050919050565b600061212b60248361259c565b91507f626964207072696365206973206c657373207468616e2063757272656e74207060008301527f72696365000000000000000000000000000000000000000000000000000000006020830152604082019050919050565b600061219160128361259c565b91507f61756374696f6e206e6f742061637469766500000000000000000000000000006000830152602082019050919050565b6000610120830160008301516121dd6000860182611dd7565b5060208301516121f06020860182612290565b50604083015161220360408601826122ae565b50606083015161221660608601826122ae565b5060808301516122296080860182611dd7565b5060a083015161223c60a0860182611eb1565b5060c083015184820360c08601526122548282611e53565b91505060e083015184820360e086015261226e8282611df5565b9150506101008301516122856101008601826122ae565b508091505092915050565b6122998161262b565b82525050565b6122a88161262b565b82525050565b6122b781612667565b82525050565b6122c681612667565b82525050565b60006122d782612084565b9150819050919050565b60006060820190506122f66000830186611de6565b6123036020830185611de6565b61231060408301846122bd565b949350505050565b600060e08201905061232d600083018a611de6565b61233a602083018961229f565b61234760408301886122bd565b61235460608301876122bd565b6123616080830186611de6565b61236e60a0830185611ec0565b61237b60c08301846122bd565b98975050505050505050565b600060208201905061239c6000830184611ecf565b92915050565b600060208201905081810360008301526123bb81611ede565b9050919050565b600060208201905081810360008301526123db81611f1e565b9050919050565b600060208201905081810360008301526123fb81611f84565b9050919050565b6000602082019050818103600083015261241b81611fc4565b9050919050565b6000602082019050818103600083015261243b81612004565b9050919050565b6000602082019050818103600083015261245b81612044565b9050919050565b6000602082019050818103600083015261247b8161209e565b9050919050565b6000602082019050818103600083015261249b816120de565b9050919050565b600060208201905081810360008301526124bb8161211e565b9050919050565b600060208201905081810360008301526124db81612184565b9050919050565b600060208201905081810360008301526124fc81846121c4565b905092915050565b600060208201905061251960008301846122bd565b92915050565b6000819050602082019050919050565b6000819050602082019050919050565b600081519050919050565b600081519050919050565b6000602082019050919050565b6000602082019050919050565b600082825260208201905092915050565b600082825260208201905092915050565b600081905092915050565b600082825260208201905092915050565b60006125b882612667565b91506125c383612667565b9250828210156125d6576125d56126ba565b5b828203905092915050565b60006125ec82612647565b9050919050565b60008115159050919050565b60007fffffffff0000000000000000000000000000000000000000000000000000000082169050919050565b60006fffffffffffffffffffffffffffffffff82169050919050565b600073ffffffffffffffffffffffffffffffffffffffff82169050919050565b6000819050919050565b600061267c82612667565b91507fffffffffffffffffffffffffffffffffffffffffffffffffffffffffffffffff8214156126af576126ae6126ba565b5b600182019050919050565b7f4e487b7100000000000000000000000000000000000000000000000000000000600052601160045260246000fd5b6126f2816125e1565b81146126fd57600080fd5b50565b6127098161262b565b811461271457600080fd5b50565b61272081612667565b811461272b57600080fd5b5056fea264697066735822122006b3c7ca230d4bc951cf581872e8e7ba5b46a4084abf2342549ee8de6b4f983464736f6c63430008000033",
  "devdoc": {
    "kind": "dev",
    "methods": {},
    "version": 1
  },
  "userdoc": {
    "kind": "user",
    "methods": {
      "bid(address,uint256)": {
        "notice": "Users bid for a particular nft, the max bid is compared and set if the current bid id highest"
      },
      "cancelAuction(address,uint256)": {
        "notice": "Called by the seller if they want to cancel the auction for their nft so the bidders get back the locked eeth and the seller get's back the nft"
      },
      "createTokenAuction(address,uint256,uint128,uint256)": {
        "notice": "Seller puts the item on auction"
      },
      "executeSale(address,uint256)": {
        "notice": "Called by the seller when the auction duration is over the hightest bid user get's the nft and other bidders get eth back"
      }
    },
    "version": 1
  },
  "storageLayout": {
    "storage": [
      {
        "astId": 1568,
        "contract": "contracts/Auction.sol:Auction",
        "label": "tokenToAuction",
        "offset": 0,
        "slot": "0",
        "type": "t_mapping(t_address,t_mapping(t_uint256,t_struct(tokenDetails)1561_storage))"
      },
      {
        "astId": 1576,
        "contract": "contracts/Auction.sol:Auction",
        "label": "bids",
        "offset": 0,
        "slot": "1",
        "type": "t_mapping(t_address,t_mapping(t_uint256,t_mapping(t_address,t_uint256)))"
      }
    ],
    "types": {
      "t_address": {
        "encoding": "inplace",
        "label": "address",
        "numberOfBytes": "20"
      },
      "t_array(t_address)dyn_storage": {
        "base": "t_address",
        "encoding": "dynamic_array",
        "label": "address[]",
        "numberOfBytes": "32"
      },
      "t_array(t_uint256)dyn_storage": {
        "base": "t_uint256",
        "encoding": "dynamic_array",
        "label": "uint256[]",
        "numberOfBytes": "32"
      },
      "t_bool": {
        "encoding": "inplace",
        "label": "bool",
        "numberOfBytes": "1"
      },
      "t_mapping(t_address,t_mapping(t_uint256,t_mapping(t_address,t_uint256)))": {
        "encoding": "mapping",
        "key": "t_address",
        "label": "mapping(address => mapping(uint256 => mapping(address => uint256)))",
        "numberOfBytes": "32",
        "value": "t_mapping(t_uint256,t_mapping(t_address,t_uint256))"
      },
      "t_mapping(t_address,t_mapping(t_uint256,t_struct(tokenDetails)1561_storage))": {
        "encoding": "mapping",
        "key": "t_address",
        "label": "mapping(address => mapping(uint256 => struct Auction.tokenDetails))",
        "numberOfBytes": "32",
        "value": "t_mapping(t_uint256,t_struct(tokenDetails)1561_storage)"
      },
      "t_mapping(t_address,t_uint256)": {
        "encoding": "mapping",
        "key": "t_address",
        "label": "mapping(address => uint256)",
        "numberOfBytes": "32",
        "value": "t_uint256"
      },
      "t_mapping(t_uint256,t_mapping(t_address,t_uint256))": {
        "encoding": "mapping",
        "key": "t_uint256",
        "label": "mapping(uint256 => mapping(address => uint256))",
        "numberOfBytes": "32",
        "value": "t_mapping(t_address,t_uint256)"
      },
      "t_mapping(t_uint256,t_struct(tokenDetails)1561_storage)": {
        "encoding": "mapping",
        "key": "t_uint256",
        "label": "mapping(uint256 => struct Auction.tokenDetails)",
        "numberOfBytes": "32",
        "value": "t_struct(tokenDetails)1561_storage"
      },
      "t_struct(tokenDetails)1561_storage": {
        "encoding": "inplace",
        "label": "struct Auction.tokenDetails",
        "members": [
          {
            "astId": 1542,
            "contract": "contracts/Auction.sol:Auction",
            "label": "seller",
            "offset": 0,
            "slot": "0",
            "type": "t_address"
          },
          {
            "astId": 1544,
            "contract": "contracts/Auction.sol:Auction",
            "label": "price",
            "offset": 0,
            "slot": "1",
            "type": "t_uint128"
          },
          {
            "astId": 1546,
            "contract": "contracts/Auction.sol:Auction",
            "label": "duration",
            "offset": 0,
            "slot": "2",
            "type": "t_uint256"
          },
          {
            "astId": 1548,
            "contract": "contracts/Auction.sol:Auction",
            "label": "maxBid",
            "offset": 0,
            "slot": "3",
            "type": "t_uint256"
          },
          {
            "astId": 1550,
            "contract": "contracts/Auction.sol:Auction",
            "label": "maxBidUser",
            "offset": 0,
            "slot": "4",
            "type": "t_address"
          },
          {
            "astId": 1552,
            "contract": "contracts/Auction.sol:Auction",
            "label": "isActive",
            "offset": 20,
            "slot": "4",
            "type": "t_bool"
          },
          {
            "astId": 1555,
            "contract": "contracts/Auction.sol:Auction",
            "label": "bidAmounts",
            "offset": 0,
            "slot": "5",
            "type": "t_array(t_uint256)dyn_storage"
          },
          {
            "astId": 1558,
            "contract": "contracts/Auction.sol:Auction",
            "label": "users",
            "offset": 0,
            "slot": "6",
            "type": "t_array(t_address)dyn_storage"
          },
          {
            "astId": 1560,
            "contract": "contracts/Auction.sol:Auction",
            "label": "minIncrement",
            "offset": 0,
            "slot": "7",
            "type": "t_uint256"
          }
        ],
        "numberOfBytes": "256"
      },
      "t_uint128": {
        "encoding": "inplace",
        "label": "uint128",
        "numberOfBytes": "16"
      },
      "t_uint256": {
        "encoding": "inplace",
        "label": "uint256",
        "numberOfBytes": "32"
      }
    }
  }
}