{
  "address": "0x057F75F221E4b9F836a057c98284dFd7A49382c7",
  "abi": [
    {
      "inputs": [
        {
          "internalType": "address",
          "name": "_VRFCoordinator",
          "type": "address"
        },
        {
          "internalType": "address",
          "name": "_LinkToken",
          "type": "address"
        },
        {
          "internalType": "bytes32",
          "name": "_keyHash",
          "type": "bytes32"
        },
        {
          "internalType": "uint256",
          "name": "_fee",
          "type": "uint256"
        }
      ],
      "stateMutability": "nonpayable",
      "type": "constructor"
    },
    {
      "anonymous": false,
      "inputs": [
        {
          "indexed": true,
          "internalType": "address",
          "name": "owner",
          "type": "address"
        },
        {
          "indexed": true,
          "internalType": "address",
          "name": "approved",
          "type": "address"
        },
        {
          "indexed": true,
          "internalType": "uint256",
          "name": "tokenId",
          "type": "uint256"
        }
      ],
      "name": "Approval",
      "type": "event"
    },
    {
      "anonymous": false,
      "inputs": [
        {
          "indexed": true,
          "internalType": "address",
          "name": "owner",
          "type": "address"
        },
        {
          "indexed": true,
          "internalType": "address",
          "name": "operator",
          "type": "address"
        },
        {
          "indexed": false,
          "internalType": "bool",
          "name": "approved",
          "type": "bool"
        }
      ],
      "name": "ApprovalForAll",
      "type": "event"
    },
    {
      "anonymous": false,
      "inputs": [
        {
          "indexed": true,
          "internalType": "uint256",
          "name": "tokenId",
          "type": "uint256"
        },
        {
          "indexed": false,
          "internalType": "string",
          "name": "tokenURI",
          "type": "string"
        }
      ],
      "name": "CreatedRandomSVG",
      "type": "event"
    },
    {
      "anonymous": false,
      "inputs": [
        {
          "indexed": true,
          "internalType": "uint256",
          "name": "tokenId",
          "type": "uint256"
        },
        {
          "indexed": false,
          "internalType": "uint256",
          "name": "randomNumber",
          "type": "uint256"
        }
      ],
      "name": "CreatedUnfinishedRandomSVG",
      "type": "event"
    },
    {
      "anonymous": false,
      "inputs": [
        {
          "indexed": true,
          "internalType": "bytes32",
          "name": "requestId",
          "type": "bytes32"
        },
        {
          "indexed": true,
          "internalType": "uint256",
          "name": "tokenId",
          "type": "uint256"
        }
      ],
      "name": "RequestedRandomSVG",
      "type": "event"
    },
    {
      "anonymous": false,
      "inputs": [
        {
          "indexed": true,
          "internalType": "address",
          "name": "from",
          "type": "address"
        },
        {
          "indexed": true,
          "internalType": "address",
          "name": "to",
          "type": "address"
        },
        {
          "indexed": true,
          "internalType": "uint256",
          "name": "tokenId",
          "type": "uint256"
        }
      ],
      "name": "Transfer",
      "type": "event"
    },
    {
      "inputs": [
        {
          "internalType": "address",
          "name": "to",
          "type": "address"
        },
        {
          "internalType": "uint256",
          "name": "tokenId",
          "type": "uint256"
        }
      ],
      "name": "approve",
      "outputs": [],
      "stateMutability": "nonpayable",
      "type": "function"
    },
    {
      "inputs": [
        {
          "internalType": "address",
          "name": "owner",
          "type": "address"
        }
      ],
      "name": "balanceOf",
      "outputs": [
        {
          "internalType": "uint256",
          "name": "",
          "type": "uint256"
        }
      ],
      "stateMutability": "view",
      "type": "function"
    },
    {
      "inputs": [
        {
          "internalType": "uint256",
          "name": "",
          "type": "uint256"
        }
      ],
      "name": "colors",
      "outputs": [
        {
          "internalType": "string",
          "name": "",
          "type": "string"
        }
      ],
      "stateMutability": "view",
      "type": "function"
    },
    {
      "inputs": [],
      "name": "create",
      "outputs": [
        {
          "internalType": "bytes32",
          "name": "requestId",
          "type": "bytes32"
        }
      ],
      "stateMutability": "payable",
      "type": "function"
    },
    {
      "inputs": [],
      "name": "fee",
      "outputs": [
        {
          "internalType": "uint256",
          "name": "",
          "type": "uint256"
        }
      ],
      "stateMutability": "view",
      "type": "function"
    },
    {
      "inputs": [
        {
          "internalType": "uint256",
          "name": "_tokenId",
          "type": "uint256"
        }
      ],
      "name": "finishMint",
      "outputs": [],
      "stateMutability": "nonpayable",
      "type": "function"
    },
    {
      "inputs": [
        {
          "internalType": "string",
          "name": "_imageURI",
          "type": "string"
        }
      ],
      "name": "formatTokenURI",
      "outputs": [
        {
          "internalType": "string",
          "name": "",
          "type": "string"
        }
      ],
      "stateMutability": "pure",
      "type": "function"
    },
    {
      "inputs": [
        {
          "internalType": "uint256",
          "name": "_randomNumber",
          "type": "uint256"
        }
      ],
      "name": "generatePath",
      "outputs": [
        {
          "internalType": "string",
          "name": "pathSvg",
          "type": "string"
        }
      ],
      "stateMutability": "view",
      "type": "function"
    },
    {
      "inputs": [
        {
          "internalType": "uint256",
          "name": "_randomNumber",
          "type": "uint256"
        }
      ],
      "name": "generatePathCommand",
      "outputs": [
        {
          "internalType": "string",
          "name": "pathCommand",
          "type": "string"
        }
      ],
      "stateMutability": "view",
      "type": "function"
    },
    {
      "inputs": [
        {
          "internalType": "uint256",
          "name": "_randomNumber",
          "type": "uint256"
        }
      ],
      "name": "generateSVG",
      "outputs": [
        {
          "internalType": "string",
          "name": "finalSvg",
          "type": "string"
        }
      ],
      "stateMutability": "view",
      "type": "function"
    },
    {
      "inputs": [
        {
          "internalType": "uint256",
          "name": "tokenId",
          "type": "uint256"
        }
      ],
      "name": "getApproved",
      "outputs": [
        {
          "internalType": "address",
          "name": "",
          "type": "address"
        }
      ],
      "stateMutability": "view",
      "type": "function"
    },
    {
      "inputs": [
        {
          "internalType": "address",
          "name": "owner",
          "type": "address"
        },
        {
          "internalType": "address",
          "name": "operator",
          "type": "address"
        }
      ],
      "name": "isApprovedForAll",
      "outputs": [
        {
          "internalType": "bool",
          "name": "",
          "type": "bool"
        }
      ],
      "stateMutability": "view",
      "type": "function"
    },
    {
      "inputs": [],
      "name": "keyHash",
      "outputs": [
        {
          "internalType": "bytes32",
          "name": "",
          "type": "bytes32"
        }
      ],
      "stateMutability": "view",
      "type": "function"
    },
    {
      "inputs": [],
      "name": "maxNumberOfPaths",
      "outputs": [
        {
          "internalType": "uint256",
          "name": "",
          "type": "uint256"
        }
      ],
      "stateMutability": "view",
      "type": "function"
    },
    {
      "inputs": [],
      "name": "maxNumberOfPathsCommands",
      "outputs": [
        {
          "internalType": "uint256",
          "name": "",
          "type": "uint256"
        }
      ],
      "stateMutability": "view",
      "type": "function"
    },
    {
      "inputs": [],
      "name": "name",
      "outputs": [
        {
          "internalType": "string",
          "name": "",
          "type": "string"
        }
      ],
      "stateMutability": "view",
      "type": "function"
    },
    {
      "inputs": [],
      "name": "owner",
      "outputs": [
        {
          "internalType": "address payable",
          "name": "",
          "type": "address"
        }
      ],
      "stateMutability": "view",
      "type": "function"
    },
    {
      "inputs": [
        {
          "internalType": "uint256",
          "name": "tokenId",
          "type": "uint256"
        }
      ],
      "name": "ownerOf",
      "outputs": [
        {
          "internalType": "address",
          "name": "",
          "type": "address"
        }
      ],
      "stateMutability": "view",
      "type": "function"
    },
    {
      "inputs": [
        {
          "internalType": "uint256",
          "name": "",
          "type": "uint256"
        }
      ],
      "name": "pathCommands",
      "outputs": [
        {
          "internalType": "string",
          "name": "",
          "type": "string"
        }
      ],
      "stateMutability": "view",
      "type": "function"
    },
    {
      "inputs": [],
      "name": "price",
      "outputs": [
        {
          "internalType": "uint256",
          "name": "",
          "type": "uint256"
        }
      ],
      "stateMutability": "view",
      "type": "function"
    },
    {
      "inputs": [
        {
          "internalType": "bytes32",
          "name": "requestId",
          "type": "bytes32"
        },
        {
          "internalType": "uint256",
          "name": "randomness",
          "type": "uint256"
        }
      ],
      "name": "rawFulfillRandomness",
      "outputs": [],
      "stateMutability": "nonpayable",
      "type": "function"
    },
    {
      "inputs": [],
      "name": "requestCounter",
      "outputs": [
        {
          "internalType": "uint256",
          "name": "",
          "type": "uint256"
        }
      ],
      "stateMutability": "view",
      "type": "function"
    },
    {
      "inputs": [
        {
          "internalType": "bytes32",
          "name": "",
          "type": "bytes32"
        }
      ],
      "name": "requestIdToSender",
      "outputs": [
        {
          "internalType": "address",
          "name": "",
          "type": "address"
        }
      ],
      "stateMutability": "view",
      "type": "function"
    },
    {
      "inputs": [
        {
          "internalType": "bytes32",
          "name": "",
          "type": "bytes32"
        }
      ],
      "name": "requestIdToTokenId",
      "outputs": [
        {
          "internalType": "uint256",
          "name": "",
          "type": "uint256"
        }
      ],
      "stateMutability": "view",
      "type": "function"
    },
    {
      "inputs": [
        {
          "internalType": "address",
          "name": "from",
          "type": "address"
        },
        {
          "internalType": "address",
          "name": "to",
          "type": "address"
        },
        {
          "internalType": "uint256",
          "name": "tokenId",
          "type": "uint256"
        }
      ],
      "name": "safeTransferFrom",
      "outputs": [],
      "stateMutability": "nonpayable",
      "type": "function"
    },
    {
      "inputs": [
        {
          "internalType": "address",
          "name": "from",
          "type": "address"
        },
        {
          "internalType": "address",
          "name": "to",
          "type": "address"
        },
        {
          "internalType": "uint256",
          "name": "tokenId",
          "type": "uint256"
        },
        {
          "internalType": "bytes",
          "name": "_data",
          "type": "bytes"
        }
      ],
      "name": "safeTransferFrom",
      "outputs": [],
      "stateMutability": "nonpayable",
      "type": "function"
    },
    {
      "inputs": [
        {
          "internalType": "address",
          "name": "operator",
          "type": "address"
        },
        {
          "internalType": "bool",
          "name": "approved",
          "type": "bool"
        }
      ],
      "name": "setApprovalForAll",
      "outputs": [],
      "stateMutability": "nonpayable",
      "type": "function"
    },
    {
      "inputs": [],
      "name": "size",
      "outputs": [
        {
          "internalType": "uint256",
          "name": "",
          "type": "uint256"
        }
      ],
      "stateMutability": "view",
      "type": "function"
    },
    {
      "inputs": [
        {
          "internalType": "bytes4",
          "name": "interfaceId",
          "type": "bytes4"
        }
      ],
      "name": "supportsInterface",
      "outputs": [
        {
          "internalType": "bool",
          "name": "",
          "type": "bool"
        }
      ],
      "stateMutability": "view",
      "type": "function"
    },
    {
      "inputs": [
        {
          "internalType": "string",
          "name": "_svg",
          "type": "string"
        }
      ],
      "name": "svgToImageURI",
      "outputs": [
        {
          "internalType": "string",
          "name": "",
          "type": "string"
        }
      ],
      "stateMutability": "pure",
      "type": "function"
    },
    {
      "inputs": [],
      "name": "symbol",
      "outputs": [
        {
          "internalType": "string",
          "name": "",
          "type": "string"
        }
      ],
      "stateMutability": "view",
      "type": "function"
    },
    {
      "inputs": [],
      "name": "tokenCounter",
      "outputs": [
        {
          "internalType": "uint256",
          "name": "",
          "type": "uint256"
        }
      ],
      "stateMutability": "view",
      "type": "function"
    },
    {
      "inputs": [
        {
          "internalType": "uint256",
          "name": "",
          "type": "uint256"
        }
      ],
      "name": "tokenIdToNftOwner",
      "outputs": [
        {
          "internalType": "address",
          "name": "",
          "type": "address"
        }
      ],
      "stateMutability": "view",
      "type": "function"
    },
    {
      "inputs": [
        {
          "internalType": "uint256",
          "name": "",
          "type": "uint256"
        }
      ],
      "name": "tokenIdToRandomNumber",
      "outputs": [
        {
          "internalType": "uint256",
          "name": "",
          "type": "uint256"
        }
      ],
      "stateMutability": "view",
      "type": "function"
    },
    {
      "inputs": [
        {
          "internalType": "uint256",
          "name": "tokenId",
          "type": "uint256"
        }
      ],
      "name": "tokenURI",
      "outputs": [
        {
          "internalType": "string",
          "name": "",
          "type": "string"
        }
      ],
      "stateMutability": "view",
      "type": "function"
    },
    {
      "inputs": [
        {
          "internalType": "address",
          "name": "from",
          "type": "address"
        },
        {
          "internalType": "address",
          "name": "to",
          "type": "address"
        },
        {
          "internalType": "uint256",
          "name": "tokenId",
          "type": "uint256"
        }
      ],
      "name": "transferFrom",
      "outputs": [],
      "stateMutability": "nonpayable",
      "type": "function"
    },
    {
      "inputs": [],
      "name": "withdraw",
      "outputs": [],
      "stateMutability": "nonpayable",
      "type": "function"
    }
  ],
  "transactionHash": "0x2bb9854c09448dbd7d95fb72e6d531d00d98d0e3c5c4fe3c359aa09a2d156f4a",
  "args": [
    "0xb3dCcb4Cf7a26f6cf6B120Cf5A73875B7BBc655B",
    "0x01BE23585060835E02B77ef475b0Cc51aA1e0709",
    "0x2ed0feb3e7fd2022120aa84fab1945545a9f2ffc9076fd6156fa96eaff4c1311",
    "100000000000000000"
  ],
  "solcInputHash": "f208dd788c8f084cc38f55a546cf005b",
  "bytecode": "0x60c06040523480156200001157600080fd5b5060405162005680380380620056808339818101604052810190620000379190620008a4565b83836040518060400160405280600981526020017f52616e646f6d53564700000000000000000000000000000000000000000000008152506040518060400160405280600581526020017f72734e46540000000000000000000000000000000000000000000000000000008152508160009080519060200190620000bd92919062000673565b508060019080519060200190620000d692919062000673565b5050508173ffffffffffffffffffffffffffffffffffffffff1660a08173ffffffffffffffffffffffffffffffffffffffff1660601b815250508073ffffffffffffffffffffffffffffffffffffffff1660808173ffffffffffffffffffffffffffffffffffffffff1660601b81525050505080600981905550816008819055506000600a819055506000600b81905550662386f26fc10000600c8190555033600d60006101000a81548173ffffffffffffffffffffffffffffffffffffffff021916908373ffffffffffffffffffffffffffffffffffffffff160217905550600a600e819055506005600f819055506101f460108190555060405180602001604052806040518060400160405280600181526020017f4c0000000000000000000000000000000000000000000000000000000000000081525081525060119060016200022592919062000704565b506040518061024001604052806040518060400160405280600481526020017f626c75650000000000000000000000000000000000000000000000000000000081525081526020016040518060400160405280600381526020017f726564000000000000000000000000000000000000000000000000000000000081525081526020016040518060400160405280600581526020017f677265656e00000000000000000000000000000000000000000000000000000081525081526020016040518060400160405280600681526020017f79656c6c6f77000000000000000000000000000000000000000000000000000081525081526020016040518060400160405280600581526020017f626c61636b00000000000000000000000000000000000000000000000000000081525081526020016040518060400160405280600581526020017f776869746500000000000000000000000000000000000000000000000000000081525081526020016040518060400160405280600b81526020017f6461726b6d6167656e746100000000000000000000000000000000000000000081525081526020016040518060400160405280600781526020017f6461726b7265640000000000000000000000000000000000000000000000000081525081526020016040518060400160405280600681526020017f696e6469676f000000000000000000000000000000000000000000000000000081525081526020016040518060400160405280600481526020017f676f6c640000000000000000000000000000000000000000000000000000000081525081526020016040518060400160405280600581526020017f62726f776e00000000000000000000000000000000000000000000000000000081525081526020016040518060400160405280600981526020017f63686f636f6c617465000000000000000000000000000000000000000000000081525081526020016040518060400160405280600781526020017f6372696d736f6e0000000000000000000000000000000000000000000000000081525081526020016040518060400160405280600981526020017f6361646574626c7565000000000000000000000000000000000000000000000081525081526020016040518060400160405280600881526020017f6461726b626c756500000000000000000000000000000000000000000000000081525081526020016040518060400160405280600681526020017f76696f6c6574000000000000000000000000000000000000000000000000000081525081526020016040518060400160405280600781526020017f6d6167656e74610000000000000000000000000000000000000000000000000081525081526020016040518060400160405280600981526020017f736c6174656772657900000000000000000000000000000000000000000000008152508152506012906012620006689291906200076b565b505050505062000a0b565b828054620006819062000958565b90600052602060002090601f016020900481019282620006a55760008555620006f1565b82601f10620006c057805160ff1916838001178555620006f1565b82800160010185558215620006f1579182015b82811115620006f0578251825591602001919060010190620006d3565b5b509050620007009190620007d2565b5090565b82805482825590600052602060002090810192821562000758579160200282015b82811115620007575782518290805190602001906200074692919062000673565b509160200191906001019062000725565b5b509050620007679190620007f1565b5090565b828054828255906000526020600020908101928215620007bf579160200282015b82811115620007be578251829080519060200190620007ad92919062000673565b50916020019190600101906200078c565b5b509050620007ce9190620007f1565b5090565b5b80821115620007ed576000816000905550600101620007d3565b5090565b5b808211156200081557600081816200080b919062000819565b50600101620007f2565b5090565b508054620008279062000958565b6000825580601f106200083b57506200085c565b601f0160209004906000526020600020908101906200085b9190620007d2565b5b50565b6000815190506200087081620009bd565b92915050565b6000815190506200088781620009d7565b92915050565b6000815190506200089e81620009f1565b92915050565b60008060008060808587031215620008bb57600080fd5b6000620008cb878288016200085f565b9450506020620008de878288016200085f565b9350506040620008f18782880162000876565b925050606062000904878288016200088d565b91505092959194509250565b60006200091d826200092e565b9050919050565b6000819050919050565b600073ffffffffffffffffffffffffffffffffffffffff82169050919050565b6000819050919050565b600060028204905060018216806200097157607f821691505b602082108114156200098857620009876200098e565b5b50919050565b7f4e487b7100000000000000000000000000000000000000000000000000000000600052602260045260246000fd5b620009c88162000910565b8114620009d457600080fd5b50565b620009e28162000924565b8114620009ee57600080fd5b50565b620009fc816200094e565b811462000a0857600080fd5b50565b60805160601c60a05160601c614c4262000a3e60003960008181611607015261298f015260006129530152614c426000f3fe60806040526004361061021a5760003560e01c806371aee19311610123578063a22cb465116100ab578063c87b56dd1161006f578063c87b56dd1461086b578063d082e381146108a8578063ddca3f43146108d3578063e985e9c5146108fe578063efc81a8c1461093b5761021a565b8063a22cb46514610774578063b88d4fde1461079d578063bd11f69d146107c6578063c21bf36f14610803578063c68b49d11461082e5761021a565b8063955968d4116100f2578063955968d41461067957806395d89b41146106b6578063973a814e146106e15780639c1cd7951461070c578063a035b1fe146107495761021a565b806371aee193146105bd5780638da5cb5b146105fa57806394985ddd14610625578063949d225d1461064e5761021a565b806330d871c6116101a657806361728f391161017557806361728f39146104b2578063624194c7146104dd5780636352211e146105065780636dcee4ca1461054357806370a08231146105805761021a565b806330d871c6146103f857806333af5989146104355780633ccfd60b1461047257806342842e0e146104895761021a565b80630b8e3127116101ed5780630b8e3127146102ed578063219c0eee1461031857806322881f881461035557806323b872dd1461039257806327a768fa146103bb5761021a565b806301ffc9a71461021f57806306fdde031461025c578063081812fc14610287578063095ea7b3146102c4575b600080fd5b34801561022b57600080fd5b50610246600480360381019061024191906134e0565b610959565b6040516102539190614363565b60405180910390f35b34801561026857600080fd5b50610271610a3b565b60405161027e9190614407565b60405180910390f35b34801561029357600080fd5b506102ae60048036038101906102a99190613573565b610acd565b6040516102bb91906142a3565b60405180910390f35b3480156102d057600080fd5b506102eb60048036038101906102e69190613416565b610b52565b005b3480156102f957600080fd5b50610302610c6a565b60405161030f9190614689565b60405180910390f35b34801561032457600080fd5b5061033f600480360381019061033a919061347b565b610c70565b60405161034c91906142a3565b60405180910390f35b34801561036157600080fd5b5061037c6004803603810190610377919061347b565b610ca3565b6040516103899190614689565b60405180910390f35b34801561039e57600080fd5b506103b960048036038101906103b49190613310565b610cbb565b005b3480156103c757600080fd5b506103e260048036038101906103dd9190613573565b610d1b565b6040516103ef91906142a3565b60405180910390f35b34801561040457600080fd5b5061041f600480360381019061041a9190613532565b610d4e565b60405161042c9190614407565b60405180910390f35b34801561044157600080fd5b5061045c60048036038101906104579190613573565b610de7565b6040516104699190614407565b60405180910390f35b34801561047e57600080fd5b50610487611088565b005b34801561049557600080fd5b506104b060048036038101906104ab9190613310565b611183565b005b3480156104be57600080fd5b506104c76111a3565b6040516104d4919061437e565b60405180910390f35b3480156104e957600080fd5b5061050460048036038101906104ff9190613573565b6111a9565b005b34801561051257600080fd5b5061052d60048036038101906105289190613573565b6112e6565b60405161053a91906142a3565b60405180910390f35b34801561054f57600080fd5b5061056a60048036038101906105659190613573565b611398565b6040516105779190614407565b60405180910390f35b34801561058c57600080fd5b506105a760048036038101906105a291906132ab565b61149a565b6040516105b49190614689565b60405180910390f35b3480156105c957600080fd5b506105e460048036038101906105df9190613532565b611552565b6040516105f19190614407565b60405180910390f35b34801561060657600080fd5b5061060f6115df565b60405161061c91906142be565b60405180910390f35b34801561063157600080fd5b5061064c600480360381019061064791906134a4565b611605565b005b34801561065a57600080fd5b506106636116a1565b6040516106709190614689565b60405180910390f35b34801561068557600080fd5b506106a0600480360381019061069b9190613573565b6116a7565b6040516106ad9190614407565b60405180910390f35b3480156106c257600080fd5b506106cb611753565b6040516106d89190614407565b60405180910390f35b3480156106ed57600080fd5b506106f66117e5565b6040516107039190614689565b60405180910390f35b34801561071857600080fd5b50610733600480360381019061072e9190613573565b6117eb565b6040516107409190614689565b60405180910390f35b34801561075557600080fd5b5061075e611803565b60405161076b9190614689565b60405180910390f35b34801561078057600080fd5b5061079b600480360381019061079691906133da565b611809565b005b3480156107a957600080fd5b506107c460048036038101906107bf919061335f565b61198a565b005b3480156107d257600080fd5b506107ed60048036038101906107e89190613573565b6119ec565b6040516107fa9190614407565b60405180910390f35b34801561080f57600080fd5b50610818611a98565b6040516108259190614689565b60405180910390f35b34801561083a57600080fd5b5061085560048036038101906108509190613573565b611a9e565b6040516108629190614407565b60405180910390f35b34801561087757600080fd5b50610892600480360381019061088d9190613573565b611bab565b60405161089f9190614407565b60405180910390f35b3480156108b457600080fd5b506108bd611cfd565b6040516108ca9190614689565b60405180910390f35b3480156108df57600080fd5b506108e8611d03565b6040516108f59190614689565b60405180910390f35b34801561090a57600080fd5b50610925600480360381019061092091906132d4565b611d09565b6040516109329190614363565b60405180910390f35b610943611d9d565b604051610950919061437e565b60405180910390f35b60007f80ac58cd000000000000000000000000000000000000000000000000000000007bffffffffffffffffffffffffffffffffffffffffffffffffffffffff1916827bffffffffffffffffffffffffffffffffffffffffffffffffffffffff19161480610a2457507f5b5e139f000000000000000000000000000000000000000000000000000000007bffffffffffffffffffffffffffffffffffffffffffffffffffffffff1916827bffffffffffffffffffffffffffffffffffffffffffffffffffffffff1916145b80610a345750610a3382611eab565b5b9050919050565b606060008054610a4a906149cc565b80601f0160208091040260200160405190810160405280929190818152602001828054610a76906149cc565b8015610ac35780601f10610a9857610100808354040283529160200191610ac3565b820191906000526020600020905b815481529060010190602001808311610aa657829003601f168201915b5050505050905090565b6000610ad882611f15565b610b17576040517f08c379a0000000000000000000000000000000000000000000000000000000008152600401610b0e906145a9565b60405180910390fd5b6004600083815260200190815260200160002060009054906101000a900473ffffffffffffffffffffffffffffffffffffffff169050919050565b6000610b5d826112e6565b90508073ffffffffffffffffffffffffffffffffffffffff168373ffffffffffffffffffffffffffffffffffffffff161415610bce576040517f08c379a0000000000000000000000000000000000000000000000000000000008152600401610bc590614629565b60405180910390fd5b8073ffffffffffffffffffffffffffffffffffffffff16610bed611f81565b73ffffffffffffffffffffffffffffffffffffffff161480610c1c5750610c1b81610c16611f81565b611d09565b5b610c5b576040517f08c379a0000000000000000000000000000000000000000000000000000000008152600401610c52906144e9565b60405180910390fd5b610c658383611f89565b505050565b600f5481565b60136020528060005260406000206000915054906101000a900473ffffffffffffffffffffffffffffffffffffffff1681565b60146020528060005260406000206000915090505481565b610ccc610cc6611f81565b82612042565b610d0b576040517f08c379a0000000000000000000000000000000000000000000000000000000008152600401610d0290614649565b60405180910390fd5b610d16838383612120565b505050565b60166020528060005260406000206000915054906101000a900473ffffffffffffffffffffffffffffffffffffffff1681565b606060006040518060400160405280601a81526020017f646174613a696d6167652f7376672b786d6c3b6261736536342c00000000000081525090506000610db484604051602001610da091906140de565b60405160208183030381529060405261237c565b905060008282604051602001610dcb9291906140f5565b6040516020818303038152906040529050809350505050919050565b606060006001600f5484610dfb9190614a5b565b610e0591906147a1565b90506040518060400160405280600a81526020017f3c7061746820643d274d000000000000000000000000000000000000000000008152509150606060005b82811015610ecd5760008582601054610e5d91906147a1565b604051602001610e6e9291906146a4565b6040516020818303038152906040528051906020012060001c90506000610e9482611a9e565b905080604051602001610ea791906141cc565b604051602081830303815290604052935050508080610ec5906149fe565b915050610e44565b506000601054856002601054610ee3919061485f565b604051602001610ef49291906146a4565b6040516020818303038152906040528051906020012060001c610f179190614a5b565b90506000601054866005601054610f2e919061485f565b604051602001610f3f9291906146a4565b6040516020818303038152906040528051906020012060001c610f629190614a5b565b905060006012808054905088610f789190614a5b565b81548110610faf577f4e487b7100000000000000000000000000000000000000000000000000000000600052603260045260246000fd5b906000526020600020018054610fc4906149cc565b80601f0160208091040260200160405190810160405280929190818152602001828054610ff0906149cc565b801561103d5780601f106110125761010080835404028352916020019161103d565b820191906000526020600020905b81548152906001019060200180831161102057829003601f168201915b505050505090508561104e84612527565b61105784612527565b868460405160200161106d959493929190614155565b60405160208183030381529060405295505050505050919050565b600d60009054906101000a900473ffffffffffffffffffffffffffffffffffffffff1673ffffffffffffffffffffffffffffffffffffffff163373ffffffffffffffffffffffffffffffffffffffff1614611118576040517f08c379a000000000000000000000000000000000000000000000000000000000815260040161110f90614429565b60405180910390fd5b600d60009054906101000a900473ffffffffffffffffffffffffffffffffffffffff1673ffffffffffffffffffffffffffffffffffffffff166108fc479081150290604051600060405180830381858888f19350505050158015611180573d6000803e3d6000fd5b50565b61119e8383836040518060200160405280600081525061198a565b505050565b60085481565b60003390506000829050336016600085815260200190815260200160002060006101000a81548173ffffffffffffffffffffffffffffffffffffffff021916908373ffffffffffffffffffffffffffffffffffffffff16021790555061120f82826126fc565b6001600a5461121e91906147a1565b600a81905550600060156000858152602001908152602001600020549050600061124782611398565b9050600061125482610d4e565b9050600061126182611552565b905061126d878261271a565b847faad5362ce528ed941024b95d4c18dfd49b8503e1f586a5c353631d98c2af41b78560405161129d9190614689565b60405180910390a2867f15a6487b7915a7116ce2a61d43b17e9b47484b1931f3c79f2f3d139b307b3893846040516112d59190614407565b60405180910390a250505050505050565b6000806002600084815260200190815260200160002060009054906101000a900473ffffffffffffffffffffffffffffffffffffffff169050600073ffffffffffffffffffffffffffffffffffffffff168173ffffffffffffffffffffffffffffffffffffffff16141561138f576040517f08c379a000000000000000000000000000000000000000000000000000000000815260040161138690614529565b60405180910390fd5b80915050919050565b606060006001600e54846113ac9190614a5b565b6113b691906147a1565b90506113c3601054612527565b6113ce601054612527565b6040516020016113df92919061425e565b604051602081830303815290604052915060005b8181101561147157600084826040516020016114109291906146a4565b6040516020818303038152906040528051906020012060001c9050600061143682610de7565b9050848160405160200161144b9291906140f5565b604051602081830303815290604052945050508080611469906149fe565b9150506113f3565b508160405160200161148391906141ee565b604051602081830303815290604052915050919050565b60008073ffffffffffffffffffffffffffffffffffffffff168273ffffffffffffffffffffffffffffffffffffffff16141561150b576040517f08c379a000000000000000000000000000000000000000000000000000000000815260040161150290614509565b60405180910390fd5b600360008373ffffffffffffffffffffffffffffffffffffffff1673ffffffffffffffffffffffffffffffffffffffff168152602001908152602001600020549050919050565b606060006040518060400160405280601d81526020017f646174613a6170706c69636174696f6e2f6a736f6e3b6261736536342c0000008152509050806115b7846040516020016115a39190614210565b60405160208183030381529060405261237c565b6040516020016115c89291906140f5565b604051602081830303815290604052915050919050565b600d60009054906101000a900473ffffffffffffffffffffffffffffffffffffffff1681565b7f000000000000000000000000000000000000000000000000000000000000000073ffffffffffffffffffffffffffffffffffffffff163373ffffffffffffffffffffffffffffffffffffffff1614611693576040517f08c379a000000000000000000000000000000000000000000000000000000000815260040161168a90614609565b60405180910390fd5b61169d828261278e565b5050565b60105481565b601181815481106116b757600080fd5b9060005260206000200160009150905080546116d2906149cc565b80601f01602080910402602001604051908101604052809291908181526020018280546116fe906149cc565b801561174b5780601f106117205761010080835404028352916020019161174b565b820191906000526020600020905b81548152906001019060200180831161172e57829003601f168201915b505050505081565b606060018054611762906149cc565b80601f016020809104026020016040519081016040528092919081815260200182805461178e906149cc565b80156117db5780601f106117b0576101008083540402835291602001916117db565b820191906000526020600020905b8154815290600101906020018083116117be57829003601f168201915b5050505050905090565b600b5481565b60156020528060005260406000206000915090505481565b600c5481565b611811611f81565b73ffffffffffffffffffffffffffffffffffffffff168273ffffffffffffffffffffffffffffffffffffffff16141561187f576040517f08c379a0000000000000000000000000000000000000000000000000000000008152600401611876906144a9565b60405180910390fd5b806005600061188c611f81565b73ffffffffffffffffffffffffffffffffffffffff1673ffffffffffffffffffffffffffffffffffffffff16815260200190815260200160002060008473ffffffffffffffffffffffffffffffffffffffff1673ffffffffffffffffffffffffffffffffffffffff16815260200190815260200160002060006101000a81548160ff0219169083151502179055508173ffffffffffffffffffffffffffffffffffffffff16611939611f81565b73ffffffffffffffffffffffffffffffffffffffff167f17307eab39ab6107e8899845ad3d59bd9653f200f220920489ca2b5937696c318360405161197e9190614363565b60405180910390a35050565b61199b611995611f81565b83612042565b6119da576040517f08c379a00000000000000000000000000000000000000000000000000000000081526004016119d190614649565b60405180910390fd5b6119e684848484612835565b50505050565b601281815481106119fc57600080fd5b906000526020600020016000915090508054611a17906149cc565b80601f0160208091040260200160405190810160405280929190818152602001828054611a43906149cc565b8015611a905780601f10611a6557610100808354040283529160200191611a90565b820191906000526020600020905b815481529060010190602001808311611a7357829003601f168201915b505050505081565b600e5481565b60606040518060400160405280600181526020017f4c0000000000000000000000000000000000000000000000000000000000000081525090506000601054836002601054611aed919061485f565b604051602001611afe9291906146a4565b6040516020818303038152906040528051906020012060001c611b219190614a5b565b90506000601054846003601054611b38919061485f565b604051602001611b499291906146a4565b6040516020818303038152906040528051906020012060001c611b6c9190614a5b565b905082611b7883612527565b611b8183612527565b604051602001611b9393929190614119565b60405160208183030381529060405292505050919050565b6060611bb682611f15565b611bf5576040517f08c379a0000000000000000000000000000000000000000000000000000000008152600401611bec90614589565b60405180910390fd5b6000600660008481526020019081526020016000208054611c15906149cc565b80601f0160208091040260200160405190810160405280929190818152602001828054611c41906149cc565b8015611c8e5780601f10611c6357610100808354040283529160200191611c8e565b820191906000526020600020905b815481529060010190602001808311611c7157829003601f168201915b505050505090506000611c9f612891565b9050600081511415611cb5578192505050611cf8565b600082511115611cea578082604051602001611cd29291906140f5565b60405160208183030381529060405292505050611cf8565b611cf3846128a8565b925050505b919050565b600a5481565b60095481565b6000600560008473ffffffffffffffffffffffffffffffffffffffff1673ffffffffffffffffffffffffffffffffffffffff16815260200190815260200160002060008373ffffffffffffffffffffffffffffffffffffffff1673ffffffffffffffffffffffffffffffffffffffff16815260200190815260200160002060009054906101000a900460ff16905092915050565b6000600c543414611de3576040517f08c379a0000000000000000000000000000000000000000000000000000000008152600401611dda90614669565b60405180910390fd5b611df160085460095461294f565b9050336013600083815260200190815260200160002060006101000a81548173ffffffffffffffffffffffffffffffffffffffff021916908373ffffffffffffffffffffffffffffffffffffffff1602179055506000600a5490508060146000848152602001908152602001600020819055506001600b54611e7391906147a1565b600b8190555080827fd18cd6f82baac9078af064ea020dd3dc7bff649bd8d50684f972d5995fec6e6960405160405180910390a35090565b60007f01ffc9a7000000000000000000000000000000000000000000000000000000007bffffffffffffffffffffffffffffffffffffffffffffffffffffffff1916827bffffffffffffffffffffffffffffffffffffffffffffffffffffffff1916149050919050565b60008073ffffffffffffffffffffffffffffffffffffffff166002600084815260200190815260200160002060009054906101000a900473ffffffffffffffffffffffffffffffffffffffff1673ffffffffffffffffffffffffffffffffffffffff1614159050919050565b600033905090565b816004600083815260200190815260200160002060006101000a81548173ffffffffffffffffffffffffffffffffffffffff021916908373ffffffffffffffffffffffffffffffffffffffff160217905550808273ffffffffffffffffffffffffffffffffffffffff16611ffc836112e6565b73ffffffffffffffffffffffffffffffffffffffff167f8c5be1e5ebec7d5bd14f71427d1e84f3dd0314c0f7b2291e5b200ac8c7c3b92560405160405180910390a45050565b600061204d82611f15565b61208c576040517f08c379a0000000000000000000000000000000000000000000000000000000008152600401612083906144c9565b60405180910390fd5b6000612097836112e6565b90508073ffffffffffffffffffffffffffffffffffffffff168473ffffffffffffffffffffffffffffffffffffffff16148061210657508373ffffffffffffffffffffffffffffffffffffffff166120ee84610acd565b73ffffffffffffffffffffffffffffffffffffffff16145b8061211757506121168185611d09565b5b91505092915050565b8273ffffffffffffffffffffffffffffffffffffffff16612140826112e6565b73ffffffffffffffffffffffffffffffffffffffff1614612196576040517f08c379a000000000000000000000000000000000000000000000000000000000815260040161218d906145c9565b60405180910390fd5b600073ffffffffffffffffffffffffffffffffffffffff168273ffffffffffffffffffffffffffffffffffffffff161415612206576040517f08c379a00000000000000000000000000000000000000000000000000000000081526004016121fd90614489565b60405180910390fd5b612211838383612ab1565b61221c600082611f89565b6001600360008573ffffffffffffffffffffffffffffffffffffffff1673ffffffffffffffffffffffffffffffffffffffff168152602001908152602001600020600082825461226c91906148b9565b925050819055506001600360008473ffffffffffffffffffffffffffffffffffffffff1673ffffffffffffffffffffffffffffffffffffffff16815260200190815260200160002060008282546122c391906147a1565b92505081905550816002600083815260200190815260200160002060006101000a81548173ffffffffffffffffffffffffffffffffffffffff021916908373ffffffffffffffffffffffffffffffffffffffff160217905550808273ffffffffffffffffffffffffffffffffffffffff168473ffffffffffffffffffffffffffffffffffffffff167fddf252ad1be2c89b69c2b068fc378daa952ba7f163c4a11628f55a4df523b3ef60405160405180910390a4505050565b606060008251141561239f57604051806020016040528060008152509050612522565b6000604051806060016040528060408152602001614bcd60409139905060006003600285516123ce91906147a1565b6123d8919061482e565b60046123e4919061485f565b905060006020826123f591906147a1565b67ffffffffffffffff811115612434577f4e487b7100000000000000000000000000000000000000000000000000000000600052604160045260246000fd5b6040519080825280601f01601f1916602001820160405280156124665781602001600182028036833780820191505090505b509050818152600183018586518101602084015b818310156124e1576003830192508251603f8160121c1685015160f81b8252600182019150603f81600c1c1685015160f81b8252600182019150603f8160061c1685015160f81b8252600182019150603f811685015160f81b82526001820191505061247a565b6003895106600181146124fb576002811461250b57612516565b613d3d60f01b6002830352612516565b603d60f81b60018303525b50505050508093505050505b919050565b6060600082141561256f576040518060400160405280600181526020017f300000000000000000000000000000000000000000000000000000000000000081525090506126f7565b600082905060005b600082146125a157808061258a906149fe565b915050600a8261259a919061482e565b9150612577565b60008167ffffffffffffffff8111156125e3577f4e487b7100000000000000000000000000000000000000000000000000000000600052604160045260246000fd5b6040519080825280601f01601f1916602001820160405280156126155781602001600182028036833780820191505090505b50905060008290505b600086146126ef5760018161263391906148b9565b90506000600a8088612645919061482e565b61264f919061485f565b8761265a91906148b9565b603061266691906147f7565b905060008160f81b9050808484815181106126aa577f4e487b7100000000000000000000000000000000000000000000000000000000600052603260045260246000fd5b60200101907effffffffffffffffffffffffffffffffffffffffffffffffffffffffffffff1916908160001a905350600a886126e6919061482e565b9750505061261e565b819450505050505b919050565b612716828260405180602001604052806000815250612ab6565b5050565b61272382611f15565b612762576040517f08c379a000000000000000000000000000000000000000000000000000000000815260040161275990614549565b60405180910390fd5b806006600084815260200190815260200160002090805190602001906127899291906130a5565b505050565b6000601460008481526020019081526020016000205490508160156000838152602001908152602001600020819055506000600190505b600481101561282f5782816040516020016127e19291906146a4565b6040516020818303038152906040528051906020012060001c60156000838561280a91906147a1565b8152602001908152602001600020819055508080612827906149fe565b9150506127c5565b50505050565b612840848484612120565b61284c84848484612b11565b61288b576040517f08c379a000000000000000000000000000000000000000000000000000000000815260040161288290614449565b60405180910390fd5b50505050565b606060405180602001604052806000815250905090565b60606128b382611f15565b6128f2576040517f08c379a00000000000000000000000000000000000000000000000000000000081526004016128e9906145e9565b60405180910390fd5b60006128fc612891565b9050600081511161291c5760405180602001604052806000815250612947565b8061292684612ca8565b6040516020016129379291906140f5565b6040516020818303038152906040525b915050919050565b60007f000000000000000000000000000000000000000000000000000000000000000073ffffffffffffffffffffffffffffffffffffffff16634000aea07f0000000000000000000000000000000000000000000000000000000000000000848660006040516020016129c3929190614399565b6040516020818303038152906040526040518463ffffffff1660e01b81526004016129f093929190614325565b602060405180830381600087803b158015612a0a57600080fd5b505af1158015612a1e573d6000803e3d6000fd5b505050506040513d601f19601f82011682018060405250810190612a429190613452565b506000612a65846000306007600089815260200190815260200160002054612e55565b905060016007600086815260200190815260200160002054612a8791906147a1565b6007600086815260200190815260200160002081905550612aa88482612e91565b91505092915050565b505050565b612ac08383612ec4565b612acd6000848484612b11565b612b0c576040517f08c379a0000000000000000000000000000000000000000000000000000000008152600401612b0390614449565b60405180910390fd5b505050565b6000612b328473ffffffffffffffffffffffffffffffffffffffff16613092565b15612c9b578373ffffffffffffffffffffffffffffffffffffffff1663150b7a02612b5b611f81565b8786866040518563ffffffff1660e01b8152600401612b7d94939291906142d9565b602060405180830381600087803b158015612b9757600080fd5b505af1925050508015612bc857506040513d601f19601f82011682018060405250810190612bc59190613509565b60015b612c4b573d8060008114612bf8576040519150601f19603f3d011682016040523d82523d6000602084013e612bfd565b606091505b50600081511415612c43576040517f08c379a0000000000000000000000000000000000000000000000000000000008152600401612c3a90614449565b60405180910390fd5b805181602001fd5b63150b7a0260e01b7bffffffffffffffffffffffffffffffffffffffffffffffffffffffff1916817bffffffffffffffffffffffffffffffffffffffffffffffffffffffff191614915050612ca0565b600190505b949350505050565b60606000821415612cf0576040518060400160405280600181526020017f30000000000000000000000000000000000000000000000000000000000000008152509050612e50565b600082905060005b60008214612d22578080612d0b906149fe565b915050600a82612d1b919061482e565b9150612cf8565b60008167ffffffffffffffff811115612d64577f4e487b7100000000000000000000000000000000000000000000000000000000600052604160045260246000fd5b6040519080825280601f01601f191660200182016040528015612d965781602001600182028036833780820191505090505b5090505b60008514612e4957600182612daf91906148b9565b9150600a85612dbe9190614a5b565b6030612dca91906147a1565b60f81b818381518110612e06577f4e487b7100000000000000000000000000000000000000000000000000000000600052603260045260246000fd5b60200101907effffffffffffffffffffffffffffffffffffffffffffffffffffffffffffff1916908160001a905350600a85612e42919061482e565b9450612d9a565b8093505050505b919050565b600084848484604051602001612e6e94939291906143c2565b6040516020818303038152906040528051906020012060001c9050949350505050565b60008282604051602001612ea69291906140b2565b60405160208183030381529060405280519060200120905092915050565b600073ffffffffffffffffffffffffffffffffffffffff168273ffffffffffffffffffffffffffffffffffffffff161415612f34576040517f08c379a0000000000000000000000000000000000000000000000000000000008152600401612f2b90614569565b60405180910390fd5b612f3d81611f15565b15612f7d576040517f08c379a0000000000000000000000000000000000000000000000000000000008152600401612f7490614469565b60405180910390fd5b612f8960008383612ab1565b6001600360008473ffffffffffffffffffffffffffffffffffffffff1673ffffffffffffffffffffffffffffffffffffffff1681526020019081526020016000206000828254612fd991906147a1565b92505081905550816002600083815260200190815260200160002060006101000a81548173ffffffffffffffffffffffffffffffffffffffff021916908373ffffffffffffffffffffffffffffffffffffffff160217905550808273ffffffffffffffffffffffffffffffffffffffff16600073ffffffffffffffffffffffffffffffffffffffff167fddf252ad1be2c89b69c2b068fc378daa952ba7f163c4a11628f55a4df523b3ef60405160405180910390a45050565b600080823b905060008111915050919050565b8280546130b1906149cc565b90600052602060002090601f0160209004810192826130d3576000855561311a565b82601f106130ec57805160ff191683800117855561311a565b8280016001018555821561311a579182015b828111156131195782518255916020019190600101906130fe565b5b509050613127919061312b565b5090565b5b8082111561314457600081600090555060010161312c565b5090565b600061315b613156846146fe565b6146cd565b90508281526020810184848401111561317357600080fd5b61317e84828561498a565b509392505050565b60006131996131948461472e565b6146cd565b9050828152602081018484840111156131b157600080fd5b6131bc84828561498a565b509392505050565b6000813590506131d381614b59565b92915050565b6000813590506131e881614b70565b92915050565b6000815190506131fd81614b70565b92915050565b60008135905061321281614b87565b92915050565b60008135905061322781614b9e565b92915050565b60008151905061323c81614b9e565b92915050565b600082601f83011261325357600080fd5b8135613263848260208601613148565b91505092915050565b600082601f83011261327d57600080fd5b813561328d848260208601613186565b91505092915050565b6000813590506132a581614bb5565b92915050565b6000602082840312156132bd57600080fd5b60006132cb848285016131c4565b91505092915050565b600080604083850312156132e757600080fd5b60006132f5858286016131c4565b9250506020613306858286016131c4565b9150509250929050565b60008060006060848603121561332557600080fd5b6000613333868287016131c4565b9350506020613344868287016131c4565b925050604061335586828701613296565b9150509250925092565b6000806000806080858703121561337557600080fd5b6000613383878288016131c4565b9450506020613394878288016131c4565b93505060406133a587828801613296565b925050606085013567ffffffffffffffff8111156133c257600080fd5b6133ce87828801613242565b91505092959194509250565b600080604083850312156133ed57600080fd5b60006133fb858286016131c4565b925050602061340c858286016131d9565b9150509250929050565b6000806040838503121561342957600080fd5b6000613437858286016131c4565b925050602061344885828601613296565b9150509250929050565b60006020828403121561346457600080fd5b6000613472848285016131ee565b91505092915050565b60006020828403121561348d57600080fd5b600061349b84828501613203565b91505092915050565b600080604083850312156134b757600080fd5b60006134c585828601613203565b92505060206134d685828601613296565b9150509250929050565b6000602082840312156134f257600080fd5b600061350084828501613218565b91505092915050565b60006020828403121561351b57600080fd5b60006135298482850161322d565b91505092915050565b60006020828403121561354457600080fd5b600082013567ffffffffffffffff81111561355e57600080fd5b61356a8482850161326c565b91505092915050565b60006020828403121561358557600080fd5b600061359384828501613296565b91505092915050565b6135a5816148ff565b82525050565b6135b4816148ed565b82525050565b6135c381614911565b82525050565b6135d28161491d565b82525050565b6135e96135e48261491d565b614a47565b82525050565b60006135fa8261475e565b6136048185614774565b9350613614818560208601614999565b61361d81614b48565b840191505092915050565b600061363382614769565b61363d8185614785565b935061364d818560208601614999565b61365681614b48565b840191505092915050565b600061366c82614769565b6136768185614796565b9350613686818560208601614999565b80840191505092915050565b600061369f601e83614785565b91507f596f7520617265206e6f742074686520636f6e7472616374206f776e657200006000830152602082019050919050565b60006136df603283614785565b91507f4552433732313a207472616e7366657220746f206e6f6e20455243373231526560008301527f63656976657220696d706c656d656e74657200000000000000000000000000006020830152604082019050919050565b6000613745601c83614785565b91507f4552433732313a20746f6b656e20616c7265616479206d696e746564000000006000830152602082019050919050565b6000613785601483614796565b91507f7b226e616d65223a2022535647204e4654222c200000000000000000000000006000830152601482019050919050565b60006137c5602483614785565b91507f4552433732313a207472616e7366657220746f20746865207a65726f2061646460008301527f72657373000000000000000000000000000000000000000000000000000000006020830152604082019050919050565b600061382b601983614785565b91507f4552433732313a20617070726f766520746f2063616c6c6572000000000000006000830152602082019050919050565b600061386b602683614796565b91507f226465736372697074696f6e223a22416e204e4654206261736564206f6e205360008301527f564721222c2000000000000000000000000000000000000000000000000000006020830152602682019050919050565b60006138d1602c83614785565b91507f4552433732313a206f70657261746f7220717565727920666f72206e6f6e657860008301527f697374656e7420746f6b656e00000000000000000000000000000000000000006020830152604082019050919050565b6000613937601d83614796565b91507f272066696c6c3d277472616e73706172656e7427207374726f6b653d270000006000830152601d82019050919050565b6000613977601183614796565b91507f2261747472696275746573223a22222c200000000000000000000000000000006000830152601182019050919050565b60006139b7600183614796565b91507f20000000000000000000000000000000000000000000000000000000000000006000830152600182019050919050565b60006139f7600383614796565b91507f272f3e00000000000000000000000000000000000000000000000000000000006000830152600382019050919050565b6000613a37603883614785565b91507f4552433732313a20617070726f76652063616c6c6572206973206e6f74206f7760008301527f6e6572206e6f7220617070726f76656420666f7220616c6c00000000000000006020830152604082019050919050565b6000613a9d602a83614785565b91507f4552433732313a2062616c616e636520717565727920666f7220746865207a6560008301527f726f2061646472657373000000000000000000000000000000000000000000006020830152604082019050919050565b6000613b03602983614785565b91507f4552433732313a206f776e657220717565727920666f72206e6f6e657869737460008301527f656e7420746f6b656e00000000000000000000000000000000000000000000006020830152604082019050919050565b6000613b69602e83614785565b91507f45524337323155524953746f726167653a2055524920736574206f66206e6f6e60008301527f6578697374656e7420746f6b656e0000000000000000000000000000000000006020830152604082019050919050565b6000613bcf600983614796565b91507f22696d616765223a2200000000000000000000000000000000000000000000006000830152600982019050919050565b6000613c0f600283614796565b91507f227d0000000000000000000000000000000000000000000000000000000000006000830152600282019050919050565b6000613c4f602083614785565b91507f4552433732313a206d696e7420746f20746865207a65726f20616464726573736000830152602082019050919050565b6000613c8f603183614785565b91507f45524337323155524953746f726167653a2055524920717565727920666f722060008301527f6e6f6e6578697374656e7420746f6b656e0000000000000000000000000000006020830152604082019050919050565b6000613cf5602c83614785565b91507f4552433732313a20617070726f76656420717565727920666f72206e6f6e657860008301527f697374656e7420746f6b656e00000000000000000000000000000000000000006020830152604082019050919050565b6000613d5b602983614785565b91507f4552433732313a207472616e73666572206f6620746f6b656e2074686174206960008301527f73206e6f74206f776e00000000000000000000000000000000000000000000006020830152604082019050919050565b6000613dc1603083614796565b91507f3c73766720786d6c6e733d27687474703a2f2f7777772e77332e6f72672f323060008301527f30302f73766727206865696768743d27000000000000000000000000000000006020830152603082019050919050565b6000613e27602f83614785565b91507f4552433732314d657461646174613a2055524920717565727920666f72206e6f60008301527f6e6578697374656e7420746f6b656e00000000000000000000000000000000006020830152604082019050919050565b6000613e8d601f83614785565b91507f4f6e6c7920565246436f6f7264696e61746f722063616e2066756c66696c6c006000830152602082019050919050565b6000613ecd602183614785565b91507f4552433732313a20617070726f76616c20746f2063757272656e74206f776e6560008301527f72000000000000000000000000000000000000000000000000000000000000006020830152604082019050919050565b6000613f33603183614785565b91507f4552433732313a207472616e736665722063616c6c6572206973206e6f74206f60008301527f776e6572206e6f7220617070726f7665640000000000000000000000000000006020830152604082019050919050565b6000613f99601583614785565b91507f4e65656420746f2073656e64206d6f72652045544800000000000000000000006000830152602082019050919050565b6000613fd9600283614796565b91507f273e0000000000000000000000000000000000000000000000000000000000006000830152600282019050919050565b6000614019600683614796565b91507f3c2f7376673e00000000000000000000000000000000000000000000000000006000830152600682019050919050565b6000614059600983614796565b91507f272077696474683d2700000000000000000000000000000000000000000000006000830152600982019050919050565b61409581614973565b82525050565b6140ac6140a782614973565b614a51565b82525050565b60006140be82856135d8565b6020820191506140ce828461409b565b6020820191508190509392505050565b60006140ea8284613661565b915081905092915050565b60006141018285613661565b915061410d8284613661565b91508190509392505050565b60006141258286613661565b91506141318285613661565b915061413c826139aa565b91506141488284613661565b9150819050949350505050565b60006141618288613661565b915061416d8287613661565b9150614178826139aa565b91506141848286613661565b915061418f826139aa565b915061419b8285613661565b91506141a68261392a565b91506141b28284613661565b91506141bd826139ea565b91508190509695505050505050565b60006141d88284613661565b91506141e3826139aa565b915081905092915050565b60006141fa8284613661565b91506142058261400c565b915081905092915050565b600061421b82613778565b91506142268261385e565b91506142318261396a565b915061423c82613bc2565b91506142488284613661565b915061425382613c02565b915081905092915050565b600061426982613db4565b91506142758285613661565b91506142808261404c565b915061428c8284613661565b915061429782613fcc565b91508190509392505050565b60006020820190506142b860008301846135ab565b92915050565b60006020820190506142d3600083018461359c565b92915050565b60006080820190506142ee60008301876135ab565b6142fb60208301866135ab565b614308604083018561408c565b818103606083015261431a81846135ef565b905095945050505050565b600060608201905061433a60008301866135ab565b614347602083018561408c565b818103604083015261435981846135ef565b9050949350505050565b600060208201905061437860008301846135ba565b92915050565b600060208201905061439360008301846135c9565b92915050565b60006040820190506143ae60008301856135c9565b6143bb602083018461408c565b9392505050565b60006080820190506143d760008301876135c9565b6143e4602083018661408c565b6143f160408301856135ab565b6143fe606083018461408c565b95945050505050565b600060208201905081810360008301526144218184613628565b905092915050565b6000602082019050818103600083015261444281613692565b9050919050565b60006020820190508181036000830152614462816136d2565b9050919050565b6000602082019050818103600083015261448281613738565b9050919050565b600060208201905081810360008301526144a2816137b8565b9050919050565b600060208201905081810360008301526144c28161381e565b9050919050565b600060208201905081810360008301526144e2816138c4565b9050919050565b6000602082019050818103600083015261450281613a2a565b9050919050565b6000602082019050818103600083015261452281613a90565b9050919050565b6000602082019050818103600083015261454281613af6565b9050919050565b6000602082019050818103600083015261456281613b5c565b9050919050565b6000602082019050818103600083015261458281613c42565b9050919050565b600060208201905081810360008301526145a281613c82565b9050919050565b600060208201905081810360008301526145c281613ce8565b9050919050565b600060208201905081810360008301526145e281613d4e565b9050919050565b6000602082019050818103600083015261460281613e1a565b9050919050565b6000602082019050818103600083015261462281613e80565b9050919050565b6000602082019050818103600083015261464281613ec0565b9050919050565b6000602082019050818103600083015261466281613f26565b9050919050565b6000602082019050818103600083015261468281613f8c565b9050919050565b600060208201905061469e600083018461408c565b92915050565b60006040820190506146b9600083018561408c565b6146c6602083018461408c565b9392505050565b6000604051905081810181811067ffffffffffffffff821117156146f4576146f3614b19565b5b8060405250919050565b600067ffffffffffffffff82111561471957614718614b19565b5b601f19601f8301169050602081019050919050565b600067ffffffffffffffff82111561474957614748614b19565b5b601f19601f8301169050602081019050919050565b600081519050919050565b600081519050919050565b600082825260208201905092915050565b600082825260208201905092915050565b600081905092915050565b60006147ac82614973565b91506147b783614973565b9250827fffffffffffffffffffffffffffffffffffffffffffffffffffffffffffffffff038211156147ec576147eb614a8c565b5b828201905092915050565b60006148028261497d565b915061480d8361497d565b92508260ff0382111561482357614822614a8c565b5b828201905092915050565b600061483982614973565b915061484483614973565b92508261485457614853614abb565b5b828204905092915050565b600061486a82614973565b915061487583614973565b9250817fffffffffffffffffffffffffffffffffffffffffffffffffffffffffffffffff04831182151516156148ae576148ad614a8c565b5b828202905092915050565b60006148c482614973565b91506148cf83614973565b9250828210156148e2576148e1614a8c565b5b828203905092915050565b60006148f882614953565b9050919050565b600061490a82614953565b9050919050565b60008115159050919050565b6000819050919050565b60007fffffffff0000000000000000000000000000000000000000000000000000000082169050919050565b600073ffffffffffffffffffffffffffffffffffffffff82169050919050565b6000819050919050565b600060ff82169050919050565b82818337600083830152505050565b60005b838110156149b757808201518184015260208101905061499c565b838111156149c6576000848401525b50505050565b600060028204905060018216806149e457607f821691505b602082108114156149f8576149f7614aea565b5b50919050565b6000614a0982614973565b91507fffffffffffffffffffffffffffffffffffffffffffffffffffffffffffffffff821415614a3c57614a3b614a8c565b5b600182019050919050565b6000819050919050565b6000819050919050565b6000614a6682614973565b9150614a7183614973565b925082614a8157614a80614abb565b5b828206905092915050565b7f4e487b7100000000000000000000000000000000000000000000000000000000600052601160045260246000fd5b7f4e487b7100000000000000000000000000000000000000000000000000000000600052601260045260246000fd5b7f4e487b7100000000000000000000000000000000000000000000000000000000600052602260045260246000fd5b7f4e487b7100000000000000000000000000000000000000000000000000000000600052604160045260246000fd5b6000601f19601f8301169050919050565b614b62816148ed565b8114614b6d57600080fd5b50565b614b7981614911565b8114614b8457600080fd5b50565b614b908161491d565b8114614b9b57600080fd5b50565b614ba781614927565b8114614bb257600080fd5b50565b614bbe81614973565b8114614bc957600080fd5b5056fe4142434445464748494a4b4c4d4e4f505152535455565758595a6162636465666768696a6b6c6d6e6f707172737475767778797a303132333435363738392b2fa2646970667358221220a0b078d46f165e0fa2f0164ce1a78e2e77de7e9eee295effca31d39b4c2aa83864736f6c63430008000033",
  "devdoc": {
    "kind": "dev",
    "methods": {
      "approve(address,uint256)": {
        "details": "See {IERC721-approve}."
      },
      "balanceOf(address)": {
        "details": "See {IERC721-balanceOf}."
      },
      "getApproved(uint256)": {
        "details": "See {IERC721-getApproved}."
      },
      "isApprovedForAll(address,address)": {
        "details": "See {IERC721-isApprovedForAll}."
      },
      "name()": {
        "details": "See {IERC721Metadata-name}."
      },
      "ownerOf(uint256)": {
        "details": "See {IERC721-ownerOf}."
      },
      "safeTransferFrom(address,address,uint256)": {
        "details": "See {IERC721-safeTransferFrom}."
      },
      "safeTransferFrom(address,address,uint256,bytes)": {
        "details": "See {IERC721-safeTransferFrom}."
      },
      "setApprovalForAll(address,bool)": {
        "details": "See {IERC721-setApprovalForAll}."
      },
      "supportsInterface(bytes4)": {
        "details": "See {IERC165-supportsInterface}."
      },
      "symbol()": {
        "details": "See {IERC721Metadata-symbol}."
      },
      "tokenURI(uint256)": {
        "details": "See {IERC721Metadata-tokenURI}."
      },
      "transferFrom(address,address,uint256)": {
        "details": "See {IERC721-transferFrom}."
      }
    },
    "version": 1
  },
  "userdoc": {
    "kind": "user",
    "methods": {},
    "version": 1
  },
  "storageLayout": {
    "storage": [
      {
        "astId": 291,
        "contract": "contracts/RandomSVG.sol:RandomSVG",
        "label": "_name",
        "offset": 0,
        "slot": "0",
        "type": "t_string_storage"
      },
      {
        "astId": 293,
        "contract": "contracts/RandomSVG.sol:RandomSVG",
        "label": "_symbol",
        "offset": 0,
        "slot": "1",
        "type": "t_string_storage"
      },
      {
        "astId": 297,
        "contract": "contracts/RandomSVG.sol:RandomSVG",
        "label": "_owners",
        "offset": 0,
        "slot": "2",
        "type": "t_mapping(t_uint256,t_address)"
      },
      {
        "astId": 301,
        "contract": "contracts/RandomSVG.sol:RandomSVG",
        "label": "_balances",
        "offset": 0,
        "slot": "3",
        "type": "t_mapping(t_address,t_uint256)"
      },
      {
        "astId": 305,
        "contract": "contracts/RandomSVG.sol:RandomSVG",
        "label": "_tokenApprovals",
        "offset": 0,
        "slot": "4",
        "type": "t_mapping(t_uint256,t_address)"
      },
      {
        "astId": 311,
        "contract": "contracts/RandomSVG.sol:RandomSVG",
        "label": "_operatorApprovals",
        "offset": 0,
        "slot": "5",
        "type": "t_mapping(t_address,t_mapping(t_address,t_bool))"
      },
      {
        "astId": 1228,
        "contract": "contracts/RandomSVG.sol:RandomSVG",
        "label": "_tokenURIs",
        "offset": 0,
        "slot": "6",
        "type": "t_mapping(t_uint256,t_string_storage)"
      },
      {
        "astId": 79,
        "contract": "contracts/RandomSVG.sol:RandomSVG",
        "label": "nonces",
        "offset": 0,
        "slot": "7",
        "type": "t_mapping(t_bytes32,t_uint256)"
      },
      {
        "astId": 1989,
        "contract": "contracts/RandomSVG.sol:RandomSVG",
        "label": "keyHash",
        "offset": 0,
        "slot": "8",
        "type": "t_bytes32"
      },
      {
        "astId": 1991,
        "contract": "contracts/RandomSVG.sol:RandomSVG",
        "label": "fee",
        "offset": 0,
        "slot": "9",
        "type": "t_uint256"
      },
      {
        "astId": 1993,
        "contract": "contracts/RandomSVG.sol:RandomSVG",
        "label": "tokenCounter",
        "offset": 0,
        "slot": "10",
        "type": "t_uint256"
      },
      {
        "astId": 1995,
        "contract": "contracts/RandomSVG.sol:RandomSVG",
        "label": "requestCounter",
        "offset": 0,
        "slot": "11",
        "type": "t_uint256"
      },
      {
        "astId": 1997,
        "contract": "contracts/RandomSVG.sol:RandomSVG",
        "label": "price",
        "offset": 0,
        "slot": "12",
        "type": "t_uint256"
      },
      {
        "astId": 1999,
        "contract": "contracts/RandomSVG.sol:RandomSVG",
        "label": "owner",
        "offset": 0,
        "slot": "13",
        "type": "t_address_payable"
      },
      {
        "astId": 2001,
        "contract": "contracts/RandomSVG.sol:RandomSVG",
        "label": "maxNumberOfPaths",
        "offset": 0,
        "slot": "14",
        "type": "t_uint256"
      },
      {
        "astId": 2003,
        "contract": "contracts/RandomSVG.sol:RandomSVG",
        "label": "maxNumberOfPathsCommands",
        "offset": 0,
        "slot": "15",
        "type": "t_uint256"
      },
      {
        "astId": 2005,
        "contract": "contracts/RandomSVG.sol:RandomSVG",
        "label": "size",
        "offset": 0,
        "slot": "16",
        "type": "t_uint256"
      },
      {
        "astId": 2008,
        "contract": "contracts/RandomSVG.sol:RandomSVG",
        "label": "pathCommands",
        "offset": 0,
        "slot": "17",
        "type": "t_array(t_string_storage)dyn_storage"
      },
      {
        "astId": 2011,
        "contract": "contracts/RandomSVG.sol:RandomSVG",
        "label": "colors",
        "offset": 0,
        "slot": "18",
        "type": "t_array(t_string_storage)dyn_storage"
      },
      {
        "astId": 2015,
        "contract": "contracts/RandomSVG.sol:RandomSVG",
        "label": "requestIdToSender",
        "offset": 0,
        "slot": "19",
        "type": "t_mapping(t_bytes32,t_address)"
      },
      {
        "astId": 2019,
        "contract": "contracts/RandomSVG.sol:RandomSVG",
        "label": "requestIdToTokenId",
        "offset": 0,
        "slot": "20",
        "type": "t_mapping(t_bytes32,t_uint256)"
      },
      {
        "astId": 2023,
        "contract": "contracts/RandomSVG.sol:RandomSVG",
        "label": "tokenIdToRandomNumber",
        "offset": 0,
        "slot": "21",
        "type": "t_mapping(t_uint256,t_uint256)"
      },
      {
        "astId": 2027,
        "contract": "contracts/RandomSVG.sol:RandomSVG",
        "label": "tokenIdToNftOwner",
        "offset": 0,
        "slot": "22",
        "type": "t_mapping(t_uint256,t_address)"
      }
    ],
    "types": {
      "t_address": {
        "encoding": "inplace",
        "label": "address",
        "numberOfBytes": "20"
      },
      "t_address_payable": {
        "encoding": "inplace",
        "label": "address payable",
        "numberOfBytes": "20"
      },
      "t_array(t_string_storage)dyn_storage": {
        "base": "t_string_storage",
        "encoding": "dynamic_array",
        "label": "string[]",
        "numberOfBytes": "32"
      },
      "t_bool": {
        "encoding": "inplace",
        "label": "bool",
        "numberOfBytes": "1"
      },
      "t_bytes32": {
        "encoding": "inplace",
        "label": "bytes32",
        "numberOfBytes": "32"
      },
      "t_mapping(t_address,t_bool)": {
        "encoding": "mapping",
        "key": "t_address",
        "label": "mapping(address => bool)",
        "numberOfBytes": "32",
        "value": "t_bool"
      },
      "t_mapping(t_address,t_mapping(t_address,t_bool))": {
        "encoding": "mapping",
        "key": "t_address",
        "label": "mapping(address => mapping(address => bool))",
        "numberOfBytes": "32",
        "value": "t_mapping(t_address,t_bool)"
      },
      "t_mapping(t_address,t_uint256)": {
        "encoding": "mapping",
        "key": "t_address",
        "label": "mapping(address => uint256)",
        "numberOfBytes": "32",
        "value": "t_uint256"
      },
      "t_mapping(t_bytes32,t_address)": {
        "encoding": "mapping",
        "key": "t_bytes32",
        "label": "mapping(bytes32 => address)",
        "numberOfBytes": "32",
        "value": "t_address"
      },
      "t_mapping(t_bytes32,t_uint256)": {
        "encoding": "mapping",
        "key": "t_bytes32",
        "label": "mapping(bytes32 => uint256)",
        "numberOfBytes": "32",
        "value": "t_uint256"
      },
      "t_mapping(t_uint256,t_address)": {
        "encoding": "mapping",
        "key": "t_uint256",
        "label": "mapping(uint256 => address)",
        "numberOfBytes": "32",
        "value": "t_address"
      },
      "t_mapping(t_uint256,t_string_storage)": {
        "encoding": "mapping",
        "key": "t_uint256",
        "label": "mapping(uint256 => string)",
        "numberOfBytes": "32",
        "value": "t_string_storage"
      },
      "t_mapping(t_uint256,t_uint256)": {
        "encoding": "mapping",
        "key": "t_uint256",
        "label": "mapping(uint256 => uint256)",
        "numberOfBytes": "32",
        "value": "t_uint256"
      },
      "t_string_storage": {
        "encoding": "bytes",
        "label": "string",
        "numberOfBytes": "32"
      },
      "t_uint256": {
        "encoding": "inplace",
        "label": "uint256",
        "numberOfBytes": "32"
      }
    }
  }
}