{
  "address": "0x2E92a5649CEAec21cAD958119d975268D8FE6d90",
  "abi": [
    {
      "inputs": [],
      "stateMutability": "nonpayable",
      "type": "constructor"
    },
    {
      "anonymous": false,
      "inputs": [
        {
          "indexed": true,
          "internalType": "address",
          "name": "owner",
          "type": "address"
        },
        {
          "indexed": true,
          "internalType": "address",
          "name": "approved",
          "type": "address"
        },
        {
          "indexed": true,
          "internalType": "uint256",
          "name": "tokenId",
          "type": "uint256"
        }
      ],
      "name": "Approval",
      "type": "event"
    },
    {
      "anonymous": false,
      "inputs": [
        {
          "indexed": true,
          "internalType": "address",
          "name": "owner",
          "type": "address"
        },
        {
          "indexed": true,
          "internalType": "address",
          "name": "operator",
          "type": "address"
        },
        {
          "indexed": false,
          "internalType": "bool",
          "name": "approved",
          "type": "bool"
        }
      ],
      "name": "ApprovalForAll",
      "type": "event"
    },
    {
      "anonymous": false,
      "inputs": [
        {
          "indexed": true,
          "internalType": "uint256",
          "name": "tokenId",
          "type": "uint256"
        },
        {
          "indexed": false,
          "internalType": "string",
          "name": "tokenURI",
          "type": "string"
        }
      ],
      "name": "CreatedSVGNFT",
      "type": "event"
    },
    {
      "anonymous": false,
      "inputs": [
        {
          "indexed": true,
          "internalType": "address",
          "name": "from",
          "type": "address"
        },
        {
          "indexed": true,
          "internalType": "address",
          "name": "to",
          "type": "address"
        },
        {
          "indexed": true,
          "internalType": "uint256",
          "name": "tokenId",
          "type": "uint256"
        }
      ],
      "name": "Transfer",
      "type": "event"
    },
    {
      "inputs": [
        {
          "internalType": "address",
          "name": "to",
          "type": "address"
        },
        {
          "internalType": "uint256",
          "name": "tokenId",
          "type": "uint256"
        }
      ],
      "name": "approve",
      "outputs": [],
      "stateMutability": "nonpayable",
      "type": "function"
    },
    {
      "inputs": [
        {
          "internalType": "address",
          "name": "owner",
          "type": "address"
        }
      ],
      "name": "balanceOf",
      "outputs": [
        {
          "internalType": "uint256",
          "name": "",
          "type": "uint256"
        }
      ],
      "stateMutability": "view",
      "type": "function"
    },
    {
      "inputs": [
        {
          "internalType": "string",
          "name": "_svg",
          "type": "string"
        }
      ],
      "name": "create",
      "outputs": [],
      "stateMutability": "nonpayable",
      "type": "function"
    },
    {
      "inputs": [
        {
          "internalType": "string",
          "name": "_imageURI",
          "type": "string"
        }
      ],
      "name": "formatTokenURI",
      "outputs": [
        {
          "internalType": "string",
          "name": "",
          "type": "string"
        }
      ],
      "stateMutability": "pure",
      "type": "function"
    },
    {
      "inputs": [
        {
          "internalType": "uint256",
          "name": "tokenId",
          "type": "uint256"
        }
      ],
      "name": "getApproved",
      "outputs": [
        {
          "internalType": "address",
          "name": "",
          "type": "address"
        }
      ],
      "stateMutability": "view",
      "type": "function"
    },
    {
      "inputs": [
        {
          "internalType": "address",
          "name": "owner",
          "type": "address"
        },
        {
          "internalType": "address",
          "name": "operator",
          "type": "address"
        }
      ],
      "name": "isApprovedForAll",
      "outputs": [
        {
          "internalType": "bool",
          "name": "",
          "type": "bool"
        }
      ],
      "stateMutability": "view",
      "type": "function"
    },
    {
      "inputs": [],
      "name": "name",
      "outputs": [
        {
          "internalType": "string",
          "name": "",
          "type": "string"
        }
      ],
      "stateMutability": "view",
      "type": "function"
    },
    {
      "inputs": [
        {
          "internalType": "uint256",
          "name": "tokenId",
          "type": "uint256"
        }
      ],
      "name": "ownerOf",
      "outputs": [
        {
          "internalType": "address",
          "name": "",
          "type": "address"
        }
      ],
      "stateMutability": "view",
      "type": "function"
    },
    {
      "inputs": [
        {
          "internalType": "address",
          "name": "from",
          "type": "address"
        },
        {
          "internalType": "address",
          "name": "to",
          "type": "address"
        },
        {
          "internalType": "uint256",
          "name": "tokenId",
          "type": "uint256"
        }
      ],
      "name": "safeTransferFrom",
      "outputs": [],
      "stateMutability": "nonpayable",
      "type": "function"
    },
    {
      "inputs": [
        {
          "internalType": "address",
          "name": "from",
          "type": "address"
        },
        {
          "internalType": "address",
          "name": "to",
          "type": "address"
        },
        {
          "internalType": "uint256",
          "name": "tokenId",
          "type": "uint256"
        },
        {
          "internalType": "bytes",
          "name": "_data",
          "type": "bytes"
        }
      ],
      "name": "safeTransferFrom",
      "outputs": [],
      "stateMutability": "nonpayable",
      "type": "function"
    },
    {
      "inputs": [
        {
          "internalType": "address",
          "name": "operator",
          "type": "address"
        },
        {
          "internalType": "bool",
          "name": "approved",
          "type": "bool"
        }
      ],
      "name": "setApprovalForAll",
      "outputs": [],
      "stateMutability": "nonpayable",
      "type": "function"
    },
    {
      "inputs": [
        {
          "internalType": "bytes4",
          "name": "interfaceId",
          "type": "bytes4"
        }
      ],
      "name": "supportsInterface",
      "outputs": [
        {
          "internalType": "bool",
          "name": "",
          "type": "bool"
        }
      ],
      "stateMutability": "view",
      "type": "function"
    },
    {
      "inputs": [
        {
          "internalType": "string",
          "name": "_svg",
          "type": "string"
        }
      ],
      "name": "svgToImageURI",
      "outputs": [
        {
          "internalType": "string",
          "name": "",
          "type": "string"
        }
      ],
      "stateMutability": "pure",
      "type": "function"
    },
    {
      "inputs": [],
      "name": "symbol",
      "outputs": [
        {
          "internalType": "string",
          "name": "",
          "type": "string"
        }
      ],
      "stateMutability": "view",
      "type": "function"
    },
    {
      "inputs": [],
      "name": "tokenCounter",
      "outputs": [
        {
          "internalType": "uint256",
          "name": "",
          "type": "uint256"
        }
      ],
      "stateMutability": "view",
      "type": "function"
    },
    {
      "inputs": [
        {
          "internalType": "uint256",
          "name": "tokenId",
          "type": "uint256"
        }
      ],
      "name": "tokenURI",
      "outputs": [
        {
          "internalType": "string",
          "name": "",
          "type": "string"
        }
      ],
      "stateMutability": "view",
      "type": "function"
    },
    {
      "inputs": [
        {
          "internalType": "address",
          "name": "from",
          "type": "address"
        },
        {
          "internalType": "address",
          "name": "to",
          "type": "address"
        },
        {
          "internalType": "uint256",
          "name": "tokenId",
          "type": "uint256"
        }
      ],
      "name": "transferFrom",
      "outputs": [],
      "stateMutability": "nonpayable",
      "type": "function"
    }
  ],
  "transactionHash": "0x562904cb4c5fb6f33f06bc56f5aac69162ebda49861cd7003bf69f4061c9add4",
  "args": [],
  "solcInputHash": "b81a8114774c004a0ff712b5672ec144",
  "bytecode": "0x60806040523480156200001157600080fd5b506040518060400160405280600781526020017f535647204e4654000000000000000000000000000000000000000000000000008152506040518060400160405280600681526020017f7376674e46540000000000000000000000000000000000000000000000000000815250816000908051906020019062000096929190620000c0565b508060019080519060200190620000af929190620000c0565b5050506000600781905550620001d5565b828054620000ce9062000170565b90600052602060002090601f016020900481019282620000f257600085556200013e565b82601f106200010d57805160ff19168380011785556200013e565b828001600101855582156200013e579182015b828111156200013d57825182559160200191906001019062000120565b5b5090506200014d919062000151565b5090565b5b808211156200016c57600081600090555060010162000152565b5090565b600060028204905060018216806200018957607f821691505b60208210811415620001a0576200019f620001a6565b5b50919050565b7f4e487b7100000000000000000000000000000000000000000000000000000000600052602260045260246000fd5b6130dc80620001e56000396000f3fe608060405234801561001057600080fd5b506004361061010b5760003560e01c806370a08231116100a2578063b6a46b3b11610071578063b6a46b3b146102dc578063b88d4fde146102f8578063c87b56dd14610314578063d082e38114610344578063e985e9c5146103625761010b565b806370a082311461024257806371aee1931461027257806395d89b41146102a2578063a22cb465146102c05761010b565b806323b872dd116100de57806323b872dd146101aa57806330d871c6146101c657806342842e0e146101f65780636352211e146102125761010b565b806301ffc9a71461011057806306fdde0314610140578063081812fc1461015e578063095ea7b31461018e575b600080fd5b61012a60048036038101906101259190611fca565b610392565b604051610137919061299a565b60405180910390f35b610148610474565b60405161015591906129b5565b60405180910390f35b6101786004803603810190610173919061205d565b610506565b6040516101859190612933565b60405180910390f35b6101a860048036038101906101a39190611f8e565b61058b565b005b6101c460048036038101906101bf9190611e88565b6106a3565b005b6101e060048036038101906101db919061201c565b610703565b6040516101ed91906129b5565b60405180910390f35b610210600480360381019061020b9190611e88565b61079c565b005b61022c6004803603810190610227919061205d565b6107bc565b6040516102399190612933565b60405180910390f35b61025c60048036038101906102579190611e23565b61086e565b6040516102699190612bd7565b60405180910390f35b61028c6004803603810190610287919061201c565b610926565b60405161029991906129b5565b60405180910390f35b6102aa6109b3565b6040516102b791906129b5565b60405180910390f35b6102da60048036038101906102d59190611f52565b610a45565b005b6102f660048036038101906102f1919061201c565b610bc6565b005b610312600480360381019061030d9190611ed7565b610c4c565b005b61032e6004803603810190610329919061205d565b610cae565b60405161033b91906129b5565b60405180910390f35b61034c610e00565b6040516103599190612bd7565b60405180910390f35b61037c60048036038101906103779190611e4c565b610e06565b604051610389919061299a565b60405180910390f35b60007f80ac58cd000000000000000000000000000000000000000000000000000000007bffffffffffffffffffffffffffffffffffffffffffffffffffffffff1916827bffffffffffffffffffffffffffffffffffffffffffffffffffffffff1916148061045d57507f5b5e139f000000000000000000000000000000000000000000000000000000007bffffffffffffffffffffffffffffffffffffffffffffffffffffffff1916827bffffffffffffffffffffffffffffffffffffffffffffffffffffffff1916145b8061046d575061046c82610e9a565b5b9050919050565b60606000805461048390612e91565b80601f01602080910402602001604051908101604052809291908181526020018280546104af90612e91565b80156104fc5780601f106104d1576101008083540402835291602001916104fc565b820191906000526020600020905b8154815290600101906020018083116104df57829003601f168201915b5050505050905090565b600061051182610f04565b610550576040517f08c379a000000000000000000000000000000000000000000000000000000000815260040161054790612b37565b60405180910390fd5b6004600083815260200190815260200160002060009054906101000a900473ffffffffffffffffffffffffffffffffffffffff169050919050565b6000610596826107bc565b90508073ffffffffffffffffffffffffffffffffffffffff168373ffffffffffffffffffffffffffffffffffffffff161415610607576040517f08c379a00000000000000000000000000000000000000000000000000000000081526004016105fe90612b97565b60405180910390fd5b8073ffffffffffffffffffffffffffffffffffffffff16610626610f70565b73ffffffffffffffffffffffffffffffffffffffff16148061065557506106548161064f610f70565b610e06565b5b610694576040517f08c379a000000000000000000000000000000000000000000000000000000000815260040161068b90612a77565b60405180910390fd5b61069e8383610f78565b505050565b6106b46106ae610f70565b82611031565b6106f3576040517f08c379a00000000000000000000000000000000000000000000000000000000081526004016106ea90612bb7565b60405180910390fd5b6106fe83838361110f565b505050565b606060006040518060400160405280601a81526020017f646174613a696d6167652f7376672b786d6c3b6261736536342c000000000000815250905060006107698460405160200161075591906128aa565b60405160208183030381529060405261136b565b9050600082826040516020016107809291906128c1565b6040516020818303038152906040529050809350505050919050565b6107b783838360405180602001604052806000815250610c4c565b505050565b6000806002600084815260200190815260200160002060009054906101000a900473ffffffffffffffffffffffffffffffffffffffff169050600073ffffffffffffffffffffffffffffffffffffffff168173ffffffffffffffffffffffffffffffffffffffff161415610865576040517f08c379a000000000000000000000000000000000000000000000000000000000815260040161085c90612ab7565b60405180910390fd5b80915050919050565b60008073ffffffffffffffffffffffffffffffffffffffff168273ffffffffffffffffffffffffffffffffffffffff1614156108df576040517f08c379a00000000000000000000000000000000000000000000000000000000081526004016108d690612a97565b60405180910390fd5b600360008373ffffffffffffffffffffffffffffffffffffffff1673ffffffffffffffffffffffffffffffffffffffff168152602001908152602001600020549050919050565b606060006040518060400160405280601d81526020017f646174613a6170706c69636174696f6e2f6a736f6e3b6261736536342c00000081525090508061098b8460405160200161097791906128e5565b60405160208183030381529060405261136b565b60405160200161099c9291906128c1565b604051602081830303815290604052915050919050565b6060600180546109c290612e91565b80601f01602080910402602001604051908101604052809291908181526020018280546109ee90612e91565b8015610a3b5780601f10610a1057610100808354040283529160200191610a3b565b820191906000526020600020905b815481529060010190602001808311610a1e57829003601f168201915b5050505050905090565b610a4d610f70565b73ffffffffffffffffffffffffffffffffffffffff168273ffffffffffffffffffffffffffffffffffffffff161415610abb576040517f08c379a0000000000000000000000000000000000000000000000000000000008152600401610ab290612a37565b60405180910390fd5b8060056000610ac8610f70565b73ffffffffffffffffffffffffffffffffffffffff1673ffffffffffffffffffffffffffffffffffffffff16815260200190815260200160002060008473ffffffffffffffffffffffffffffffffffffffff1673ffffffffffffffffffffffffffffffffffffffff16815260200190815260200160002060006101000a81548160ff0219169083151502179055508173ffffffffffffffffffffffffffffffffffffffff16610b75610f70565b73ffffffffffffffffffffffffffffffffffffffff167f17307eab39ab6107e8899845ad3d59bd9653f200f220920489ca2b5937696c3183604051610bba919061299a565b60405180910390a35050565b610bd233600754611516565b6000610bdd82610703565b90506000610bea82610926565b9050610bf860075482611534565b6007547ff5acc616aa8ecd00e5d76674d7812f9c3c3571d662c9fba4499deefa6d0be12d82604051610c2a91906129b5565b60405180910390a26001600754610c419190612cc6565b600781905550505050565b610c5d610c57610f70565b83611031565b610c9c576040517f08c379a0000000000000000000000000000000000000000000000000000000008152600401610c9390612bb7565b60405180910390fd5b610ca8848484846115a8565b50505050565b6060610cb982610f04565b610cf8576040517f08c379a0000000000000000000000000000000000000000000000000000000008152600401610cef90612b17565b60405180910390fd5b6000600660008481526020019081526020016000208054610d1890612e91565b80601f0160208091040260200160405190810160405280929190818152602001828054610d4490612e91565b8015610d915780601f10610d6657610100808354040283529160200191610d91565b820191906000526020600020905b815481529060010190602001808311610d7457829003601f168201915b505050505090506000610da2611604565b9050600081511415610db8578192505050610dfb565b600082511115610ded578082604051602001610dd59291906128c1565b60405160208183030381529060405292505050610dfb565b610df68461161b565b925050505b919050565b60075481565b6000600560008473ffffffffffffffffffffffffffffffffffffffff1673ffffffffffffffffffffffffffffffffffffffff16815260200190815260200160002060008373ffffffffffffffffffffffffffffffffffffffff1673ffffffffffffffffffffffffffffffffffffffff16815260200190815260200160002060009054906101000a900460ff16905092915050565b60007f01ffc9a7000000000000000000000000000000000000000000000000000000007bffffffffffffffffffffffffffffffffffffffffffffffffffffffff1916827bffffffffffffffffffffffffffffffffffffffffffffffffffffffff1916149050919050565b60008073ffffffffffffffffffffffffffffffffffffffff166002600084815260200190815260200160002060009054906101000a900473ffffffffffffffffffffffffffffffffffffffff1673ffffffffffffffffffffffffffffffffffffffff1614159050919050565b600033905090565b816004600083815260200190815260200160002060006101000a81548173ffffffffffffffffffffffffffffffffffffffff021916908373ffffffffffffffffffffffffffffffffffffffff160217905550808273ffffffffffffffffffffffffffffffffffffffff16610feb836107bc565b73ffffffffffffffffffffffffffffffffffffffff167f8c5be1e5ebec7d5bd14f71427d1e84f3dd0314c0f7b2291e5b200ac8c7c3b92560405160405180910390a45050565b600061103c82610f04565b61107b576040517f08c379a000000000000000000000000000000000000000000000000000000000815260040161107290612a57565b60405180910390fd5b6000611086836107bc565b90508073ffffffffffffffffffffffffffffffffffffffff168473ffffffffffffffffffffffffffffffffffffffff1614806110f557508373ffffffffffffffffffffffffffffffffffffffff166110dd84610506565b73ffffffffffffffffffffffffffffffffffffffff16145b8061110657506111058185610e06565b5b91505092915050565b8273ffffffffffffffffffffffffffffffffffffffff1661112f826107bc565b73ffffffffffffffffffffffffffffffffffffffff1614611185576040517f08c379a000000000000000000000000000000000000000000000000000000000815260040161117c90612b57565b60405180910390fd5b600073ffffffffffffffffffffffffffffffffffffffff168273ffffffffffffffffffffffffffffffffffffffff1614156111f5576040517f08c379a00000000000000000000000000000000000000000000000000000000081526004016111ec90612a17565b60405180910390fd5b6112008383836116c2565b61120b600082610f78565b6001600360008573ffffffffffffffffffffffffffffffffffffffff1673ffffffffffffffffffffffffffffffffffffffff168152602001908152602001600020600082825461125b9190612da7565b925050819055506001600360008473ffffffffffffffffffffffffffffffffffffffff1673ffffffffffffffffffffffffffffffffffffffff16815260200190815260200160002060008282546112b29190612cc6565b92505081905550816002600083815260200190815260200160002060006101000a81548173ffffffffffffffffffffffffffffffffffffffff021916908373ffffffffffffffffffffffffffffffffffffffff160217905550808273ffffffffffffffffffffffffffffffffffffffff168473ffffffffffffffffffffffffffffffffffffffff167fddf252ad1be2c89b69c2b068fc378daa952ba7f163c4a11628f55a4df523b3ef60405160405180910390a4505050565b606060008251141561138e57604051806020016040528060008152509050611511565b600060405180606001604052806040815260200161306760409139905060006003600285516113bd9190612cc6565b6113c79190612d1c565b60046113d39190612d4d565b905060006020826113e49190612cc6565b67ffffffffffffffff811115611423577f4e487b7100000000000000000000000000000000000000000000000000000000600052604160045260246000fd5b6040519080825280601f01601f1916602001820160405280156114555781602001600182028036833780820191505090505b509050818152600183018586518101602084015b818310156114d0576003830192508251603f8160121c1685015160f81b8252600182019150603f81600c1c1685015160f81b8252600182019150603f8160061c1685015160f81b8252600182019150603f811685015160f81b825260018201915050611469565b6003895106600181146114ea57600281146114fa57611505565b613d3d60f01b6002830352611505565b603d60f81b60018303525b50505050508093505050505b919050565b6115308282604051806020016040528060008152506116c7565b5050565b61153d82610f04565b61157c576040517f08c379a000000000000000000000000000000000000000000000000000000000815260040161157390612ad7565b60405180910390fd5b806006600084815260200190815260200160002090805190602001906115a3929190611c47565b505050565b6115b384848461110f565b6115bf84848484611722565b6115fe576040517f08c379a00000000000000000000000000000000000000000000000000000000081526004016115f5906129d7565b60405180910390fd5b50505050565b606060405180602001604052806000815250905090565b606061162682610f04565b611665576040517f08c379a000000000000000000000000000000000000000000000000000000000815260040161165c90612b77565b60405180910390fd5b600061166f611604565b9050600081511161168f57604051806020016040528060008152506116ba565b80611699846118b9565b6040516020016116aa9291906128c1565b6040516020818303038152906040525b915050919050565b505050565b6116d18383611a66565b6116de6000848484611722565b61171d576040517f08c379a0000000000000000000000000000000000000000000000000000000008152600401611714906129d7565b60405180910390fd5b505050565b60006117438473ffffffffffffffffffffffffffffffffffffffff16611c34565b156118ac578373ffffffffffffffffffffffffffffffffffffffff1663150b7a0261176c610f70565b8786866040518563ffffffff1660e01b815260040161178e949392919061294e565b602060405180830381600087803b1580156117a857600080fd5b505af19250505080156117d957506040513d601f19601f820116820180604052508101906117d69190611ff3565b60015b61185c573d8060008114611809576040519150601f19603f3d011682016040523d82523d6000602084013e61180e565b606091505b50600081511415611854576040517f08c379a000000000000000000000000000000000000000000000000000000000815260040161184b906129d7565b60405180910390fd5b805181602001fd5b63150b7a0260e01b7bffffffffffffffffffffffffffffffffffffffffffffffffffffffff1916817bffffffffffffffffffffffffffffffffffffffffffffffffffffffff1916149150506118b1565b600190505b949350505050565b60606000821415611901576040518060400160405280600181526020017f30000000000000000000000000000000000000000000000000000000000000008152509050611a61565b600082905060005b6000821461193357808061191c90612ec3565b915050600a8261192c9190612d1c565b9150611909565b60008167ffffffffffffffff811115611975577f4e487b7100000000000000000000000000000000000000000000000000000000600052604160045260246000fd5b6040519080825280601f01601f1916602001820160405280156119a75781602001600182028036833780820191505090505b5090505b60008514611a5a576001826119c09190612da7565b9150600a856119cf9190612f0c565b60306119db9190612cc6565b60f81b818381518110611a17577f4e487b7100000000000000000000000000000000000000000000000000000000600052603260045260246000fd5b60200101907effffffffffffffffffffffffffffffffffffffffffffffffffffffffffffff1916908160001a905350600a85611a539190612d1c565b94506119ab565b8093505050505b919050565b600073ffffffffffffffffffffffffffffffffffffffff168273ffffffffffffffffffffffffffffffffffffffff161415611ad6576040517f08c379a0000000000000000000000000000000000000000000000000000000008152600401611acd90612af7565b60405180910390fd5b611adf81610f04565b15611b1f576040517f08c379a0000000000000000000000000000000000000000000000000000000008152600401611b16906129f7565b60405180910390fd5b611b2b600083836116c2565b6001600360008473ffffffffffffffffffffffffffffffffffffffff1673ffffffffffffffffffffffffffffffffffffffff1681526020019081526020016000206000828254611b7b9190612cc6565b92505081905550816002600083815260200190815260200160002060006101000a81548173ffffffffffffffffffffffffffffffffffffffff021916908373ffffffffffffffffffffffffffffffffffffffff160217905550808273ffffffffffffffffffffffffffffffffffffffff16600073ffffffffffffffffffffffffffffffffffffffff167fddf252ad1be2c89b69c2b068fc378daa952ba7f163c4a11628f55a4df523b3ef60405160405180910390a45050565b600080823b905060008111915050919050565b828054611c5390612e91565b90600052602060002090601f016020900481019282611c755760008555611cbc565b82601f10611c8e57805160ff1916838001178555611cbc565b82800160010185558215611cbc579182015b82811115611cbb578251825591602001919060010190611ca0565b5b509050611cc99190611ccd565b5090565b5b80821115611ce6576000816000905550600101611cce565b5090565b6000611cfd611cf884612c23565b612bf2565b905082815260208101848484011115611d1557600080fd5b611d20848285612e4f565b509392505050565b6000611d3b611d3684612c53565b612bf2565b905082815260208101848484011115611d5357600080fd5b611d5e848285612e4f565b509392505050565b600081359050611d758161300a565b92915050565b600081359050611d8a81613021565b92915050565b600081359050611d9f81613038565b92915050565b600081519050611db481613038565b92915050565b600082601f830112611dcb57600080fd5b8135611ddb848260208601611cea565b91505092915050565b600082601f830112611df557600080fd5b8135611e05848260208601611d28565b91505092915050565b600081359050611e1d8161304f565b92915050565b600060208284031215611e3557600080fd5b6000611e4384828501611d66565b91505092915050565b60008060408385031215611e5f57600080fd5b6000611e6d85828601611d66565b9250506020611e7e85828601611d66565b9150509250929050565b600080600060608486031215611e9d57600080fd5b6000611eab86828701611d66565b9350506020611ebc86828701611d66565b9250506040611ecd86828701611e0e565b9150509250925092565b60008060008060808587031215611eed57600080fd5b6000611efb87828801611d66565b9450506020611f0c87828801611d66565b9350506040611f1d87828801611e0e565b925050606085013567ffffffffffffffff811115611f3a57600080fd5b611f4687828801611dba565b91505092959194509250565b60008060408385031215611f6557600080fd5b6000611f7385828601611d66565b9250506020611f8485828601611d7b565b9150509250929050565b60008060408385031215611fa157600080fd5b6000611faf85828601611d66565b9250506020611fc085828601611e0e565b9150509250929050565b600060208284031215611fdc57600080fd5b6000611fea84828501611d90565b91505092915050565b60006020828403121561200557600080fd5b600061201384828501611da5565b91505092915050565b60006020828403121561202e57600080fd5b600082013567ffffffffffffffff81111561204857600080fd5b61205484828501611de4565b91505092915050565b60006020828403121561206f57600080fd5b600061207d84828501611e0e565b91505092915050565b61208f81612ddb565b82525050565b61209e81612ded565b82525050565b60006120af82612c83565b6120b98185612c99565b93506120c9818560208601612e5e565b6120d281612ff9565b840191505092915050565b60006120e882612c8e565b6120f28185612caa565b9350612102818560208601612e5e565b61210b81612ff9565b840191505092915050565b600061212182612c8e565b61212b8185612cbb565b935061213b818560208601612e5e565b80840191505092915050565b6000612154603283612caa565b91507f4552433732313a207472616e7366657220746f206e6f6e20455243373231526560008301527f63656976657220696d706c656d656e74657200000000000000000000000000006020830152604082019050919050565b60006121ba601c83612caa565b91507f4552433732313a20746f6b656e20616c7265616479206d696e746564000000006000830152602082019050919050565b60006121fa601483612cbb565b91507f7b226e616d65223a2022535647204e4654222c200000000000000000000000006000830152601482019050919050565b600061223a602483612caa565b91507f4552433732313a207472616e7366657220746f20746865207a65726f2061646460008301527f72657373000000000000000000000000000000000000000000000000000000006020830152604082019050919050565b60006122a0601983612caa565b91507f4552433732313a20617070726f766520746f2063616c6c6572000000000000006000830152602082019050919050565b60006122e0602683612cbb565b91507f226465736372697074696f6e223a22416e204e4654206261736564206f6e205360008301527f564721222c2000000000000000000000000000000000000000000000000000006020830152602682019050919050565b6000612346602c83612caa565b91507f4552433732313a206f70657261746f7220717565727920666f72206e6f6e657860008301527f697374656e7420746f6b656e00000000000000000000000000000000000000006020830152604082019050919050565b60006123ac601183612cbb565b91507f2261747472696275746573223a22222c200000000000000000000000000000006000830152601182019050919050565b60006123ec603883612caa565b91507f4552433732313a20617070726f76652063616c6c6572206973206e6f74206f7760008301527f6e6572206e6f7220617070726f76656420666f7220616c6c00000000000000006020830152604082019050919050565b6000612452602a83612caa565b91507f4552433732313a2062616c616e636520717565727920666f7220746865207a6560008301527f726f2061646472657373000000000000000000000000000000000000000000006020830152604082019050919050565b60006124b8602983612caa565b91507f4552433732313a206f776e657220717565727920666f72206e6f6e657869737460008301527f656e7420746f6b656e00000000000000000000000000000000000000000000006020830152604082019050919050565b600061251e602e83612caa565b91507f45524337323155524953746f726167653a2055524920736574206f66206e6f6e60008301527f6578697374656e7420746f6b656e0000000000000000000000000000000000006020830152604082019050919050565b6000612584600983612cbb565b91507f22696d616765223a2200000000000000000000000000000000000000000000006000830152600982019050919050565b60006125c4600283612cbb565b91507f227d0000000000000000000000000000000000000000000000000000000000006000830152600282019050919050565b6000612604602083612caa565b91507f4552433732313a206d696e7420746f20746865207a65726f20616464726573736000830152602082019050919050565b6000612644603183612caa565b91507f45524337323155524953746f726167653a2055524920717565727920666f722060008301527f6e6f6e6578697374656e7420746f6b656e0000000000000000000000000000006020830152604082019050919050565b60006126aa602c83612caa565b91507f4552433732313a20617070726f76656420717565727920666f72206e6f6e657860008301527f697374656e7420746f6b656e00000000000000000000000000000000000000006020830152604082019050919050565b6000612710602983612caa565b91507f4552433732313a207472616e73666572206f6620746f6b656e2074686174206960008301527f73206e6f74206f776e00000000000000000000000000000000000000000000006020830152604082019050919050565b6000612776602f83612caa565b91507f4552433732314d657461646174613a2055524920717565727920666f72206e6f60008301527f6e6578697374656e7420746f6b656e00000000000000000000000000000000006020830152604082019050919050565b60006127dc602183612caa565b91507f4552433732313a20617070726f76616c20746f2063757272656e74206f776e6560008301527f72000000000000000000000000000000000000000000000000000000000000006020830152604082019050919050565b6000612842603183612caa565b91507f4552433732313a207472616e736665722063616c6c6572206973206e6f74206f60008301527f776e6572206e6f7220617070726f7665640000000000000000000000000000006020830152604082019050919050565b6128a481612e45565b82525050565b60006128b68284612116565b915081905092915050565b60006128cd8285612116565b91506128d98284612116565b91508190509392505050565b60006128f0826121ed565b91506128fb826122d3565b91506129068261239f565b915061291182612577565b915061291d8284612116565b9150612928826125b7565b915081905092915050565b60006020820190506129486000830184612086565b92915050565b60006080820190506129636000830187612086565b6129706020830186612086565b61297d604083018561289b565b818103606083015261298f81846120a4565b905095945050505050565b60006020820190506129af6000830184612095565b92915050565b600060208201905081810360008301526129cf81846120dd565b905092915050565b600060208201905081810360008301526129f081612147565b9050919050565b60006020820190508181036000830152612a10816121ad565b9050919050565b60006020820190508181036000830152612a308161222d565b9050919050565b60006020820190508181036000830152612a5081612293565b9050919050565b60006020820190508181036000830152612a7081612339565b9050919050565b60006020820190508181036000830152612a90816123df565b9050919050565b60006020820190508181036000830152612ab081612445565b9050919050565b60006020820190508181036000830152612ad0816124ab565b9050919050565b60006020820190508181036000830152612af081612511565b9050919050565b60006020820190508181036000830152612b10816125f7565b9050919050565b60006020820190508181036000830152612b3081612637565b9050919050565b60006020820190508181036000830152612b508161269d565b9050919050565b60006020820190508181036000830152612b7081612703565b9050919050565b60006020820190508181036000830152612b9081612769565b9050919050565b60006020820190508181036000830152612bb0816127cf565b9050919050565b60006020820190508181036000830152612bd081612835565b9050919050565b6000602082019050612bec600083018461289b565b92915050565b6000604051905081810181811067ffffffffffffffff82111715612c1957612c18612fca565b5b8060405250919050565b600067ffffffffffffffff821115612c3e57612c3d612fca565b5b601f19601f8301169050602081019050919050565b600067ffffffffffffffff821115612c6e57612c6d612fca565b5b601f19601f8301169050602081019050919050565b600081519050919050565b600081519050919050565b600082825260208201905092915050565b600082825260208201905092915050565b600081905092915050565b6000612cd182612e45565b9150612cdc83612e45565b9250827fffffffffffffffffffffffffffffffffffffffffffffffffffffffffffffffff03821115612d1157612d10612f3d565b5b828201905092915050565b6000612d2782612e45565b9150612d3283612e45565b925082612d4257612d41612f6c565b5b828204905092915050565b6000612d5882612e45565b9150612d6383612e45565b9250817fffffffffffffffffffffffffffffffffffffffffffffffffffffffffffffffff0483118215151615612d9c57612d9b612f3d565b5b828202905092915050565b6000612db282612e45565b9150612dbd83612e45565b925082821015612dd057612dcf612f3d565b5b828203905092915050565b6000612de682612e25565b9050919050565b60008115159050919050565b60007fffffffff0000000000000000000000000000000000000000000000000000000082169050919050565b600073ffffffffffffffffffffffffffffffffffffffff82169050919050565b6000819050919050565b82818337600083830152505050565b60005b83811015612e7c578082015181840152602081019050612e61565b83811115612e8b576000848401525b50505050565b60006002820490506001821680612ea957607f821691505b60208210811415612ebd57612ebc612f9b565b5b50919050565b6000612ece82612e45565b91507fffffffffffffffffffffffffffffffffffffffffffffffffffffffffffffffff821415612f0157612f00612f3d565b5b600182019050919050565b6000612f1782612e45565b9150612f2283612e45565b925082612f3257612f31612f6c565b5b828206905092915050565b7f4e487b7100000000000000000000000000000000000000000000000000000000600052601160045260246000fd5b7f4e487b7100000000000000000000000000000000000000000000000000000000600052601260045260246000fd5b7f4e487b7100000000000000000000000000000000000000000000000000000000600052602260045260246000fd5b7f4e487b7100000000000000000000000000000000000000000000000000000000600052604160045260246000fd5b6000601f19601f8301169050919050565b61301381612ddb565b811461301e57600080fd5b50565b61302a81612ded565b811461303557600080fd5b50565b61304181612df9565b811461304c57600080fd5b50565b61305881612e45565b811461306357600080fd5b5056fe4142434445464748494a4b4c4d4e4f505152535455565758595a6162636465666768696a6b6c6d6e6f707172737475767778797a303132333435363738392b2fa2646970667358221220ffc036dd59e8a31db111ecfafe4cb477b5a4cab8db92716e0adafaeed0861d2964736f6c63430008000033",
  "devdoc": {
    "kind": "dev",
    "methods": {
      "approve(address,uint256)": {
        "details": "See {IERC721-approve}."
      },
      "balanceOf(address)": {
        "details": "See {IERC721-balanceOf}."
      },
      "getApproved(uint256)": {
        "details": "See {IERC721-getApproved}."
      },
      "isApprovedForAll(address,address)": {
        "details": "See {IERC721-isApprovedForAll}."
      },
      "name()": {
        "details": "See {IERC721Metadata-name}."
      },
      "ownerOf(uint256)": {
        "details": "See {IERC721-ownerOf}."
      },
      "safeTransferFrom(address,address,uint256)": {
        "details": "See {IERC721-safeTransferFrom}."
      },
      "safeTransferFrom(address,address,uint256,bytes)": {
        "details": "See {IERC721-safeTransferFrom}."
      },
      "setApprovalForAll(address,bool)": {
        "details": "See {IERC721-setApprovalForAll}."
      },
      "supportsInterface(bytes4)": {
        "details": "See {IERC165-supportsInterface}."
      },
      "symbol()": {
        "details": "See {IERC721Metadata-symbol}."
      },
      "tokenURI(uint256)": {
        "details": "See {IERC721Metadata-tokenURI}."
      },
      "transferFrom(address,address,uint256)": {
        "details": "See {IERC721-transferFrom}."
      }
    },
    "version": 1
  },
  "userdoc": {
    "kind": "user",
    "methods": {},
    "version": 1
  },
  "storageLayout": {
    "storage": [
      {
        "astId": 25,
        "contract": "contracts/SVGNFT.sol:SVGNFT",
        "label": "_name",
        "offset": 0,
        "slot": "0",
        "type": "t_string_storage"
      },
      {
        "astId": 27,
        "contract": "contracts/SVGNFT.sol:SVGNFT",
        "label": "_symbol",
        "offset": 0,
        "slot": "1",
        "type": "t_string_storage"
      },
      {
        "astId": 31,
        "contract": "contracts/SVGNFT.sol:SVGNFT",
        "label": "_owners",
        "offset": 0,
        "slot": "2",
        "type": "t_mapping(t_uint256,t_address)"
      },
      {
        "astId": 35,
        "contract": "contracts/SVGNFT.sol:SVGNFT",
        "label": "_balances",
        "offset": 0,
        "slot": "3",
        "type": "t_mapping(t_address,t_uint256)"
      },
      {
        "astId": 39,
        "contract": "contracts/SVGNFT.sol:SVGNFT",
        "label": "_tokenApprovals",
        "offset": 0,
        "slot": "4",
        "type": "t_mapping(t_uint256,t_address)"
      },
      {
        "astId": 45,
        "contract": "contracts/SVGNFT.sol:SVGNFT",
        "label": "_operatorApprovals",
        "offset": 0,
        "slot": "5",
        "type": "t_mapping(t_address,t_mapping(t_address,t_bool))"
      },
      {
        "astId": 962,
        "contract": "contracts/SVGNFT.sol:SVGNFT",
        "label": "_tokenURIs",
        "offset": 0,
        "slot": "6",
        "type": "t_mapping(t_uint256,t_string_storage)"
      },
      {
        "astId": 1720,
        "contract": "contracts/SVGNFT.sol:SVGNFT",
        "label": "tokenCounter",
        "offset": 0,
        "slot": "7",
        "type": "t_uint256"
      }
    ],
    "types": {
      "t_address": {
        "encoding": "inplace",
        "label": "address",
        "numberOfBytes": "20"
      },
      "t_bool": {
        "encoding": "inplace",
        "label": "bool",
        "numberOfBytes": "1"
      },
      "t_mapping(t_address,t_bool)": {
        "encoding": "mapping",
        "key": "t_address",
        "label": "mapping(address => bool)",
        "numberOfBytes": "32",
        "value": "t_bool"
      },
      "t_mapping(t_address,t_mapping(t_address,t_bool))": {
        "encoding": "mapping",
        "key": "t_address",
        "label": "mapping(address => mapping(address => bool))",
        "numberOfBytes": "32",
        "value": "t_mapping(t_address,t_bool)"
      },
      "t_mapping(t_address,t_uint256)": {
        "encoding": "mapping",
        "key": "t_address",
        "label": "mapping(address => uint256)",
        "numberOfBytes": "32",
        "value": "t_uint256"
      },
      "t_mapping(t_uint256,t_address)": {
        "encoding": "mapping",
        "key": "t_uint256",
        "label": "mapping(uint256 => address)",
        "numberOfBytes": "32",
        "value": "t_address"
      },
      "t_mapping(t_uint256,t_string_storage)": {
        "encoding": "mapping",
        "key": "t_uint256",
        "label": "mapping(uint256 => string)",
        "numberOfBytes": "32",
        "value": "t_string_storage"
      },
      "t_string_storage": {
        "encoding": "bytes",
        "label": "string",
        "numberOfBytes": "32"
      },
      "t_uint256": {
        "encoding": "inplace",
        "label": "uint256",
        "numberOfBytes": "32"
      }
    }
  }
}